:100000000C9446000C9465000C9465000C946500FB
:100010000C9465000C9465000C9465000C946500CC
:100020000C9465000C9465000C9465000C946500BC
:100030000C9465000C94DE000C9465000C94650033
:100040000C9465000C9465000C9465000C9465009C
:100050000C9465000C9465000C9465000C9465008C
:100060000C9465000C9465000C9465000C9465007C
:100070000C9465000C9465000C9465000C9465006C
:100080000C9465000C9465000C94650011241FBE4F
:10009000CFEFD0E4DEBFCDBF11E0A0E0B1E0E2E3FE
:1000A000F7E000E00BBF02C007900D92A432B10749
:1000B000D9F721E0A4E2B1E001C01D92A933B20753
:1000C000E1F70E94E9020C9497030C940000CF938F
:1000D000DF9300D01F92CDB7DEB789837B836A831D
:1000E00089818A3031F48A819B81BC018DE00E9434
:1000F000670080EC90E0FC018081882F90E08072A6
:100100009927892BB1F386EC90E02981FC012083AB
:1001100080E090E00F900F900F90DF91CF910895C5
:10012000CF93DF93CDB7DEB781E890E02BE0FC0101
:10013000208388E890E02DE730E0FC0131832083C4
:100140008FE690E022E0FC01208384E890E0FC014F
:100150001182108280910E0190910F01A0911001E7
:10016000B09111018093250190932601A09327015E
:10017000B09328018FE590E02FE530E0F901208170
:100180002068FC0120830000DF91CF910895CF9378
:10019000DF93CDB7DEB781E890E0FC01108200006C
:1001A000DF91CF910895CF93DF93CDB7DEB781E094
:1001B000809324010000DF91CF9108951F920F9248
:1001C00000905F000F92112400905B000F922F931C
:1001D0003F934F935F936F937F938F939F93AF93CF
:1001E000BF93EF93FF93CF93DF93CDB7DEB78091AB
:1001F000250190912601A0912701B0912801019736
:10020000A109B1098093250190932601A0932701AC
:10021000B09328018091250190912601A09127019A
:10022000B0912801892B8A2B8B2B91F40E94D3004B
:1002300080910E0190910F01A0911001B0911101D8
:100240008093250190932601A0932701B093280164
:100250000000DF91CF91FF91EF91BF91AF919F91FE
:100260008F917F916F915F914F913F912F910F905F
:1002700000925B000F9000925F000F901F90189506
:10028000CF93DF9300D000D0CDB7DEB769837A83F8
:100290008B839C8389819A81AB81BC8180930E0181
:1002A00090930F01A0931001B093110180910E0162
:1002B00090910F01A0911001B0911101809325013F
:1002C00090932601A0932701B093280100000F907E
:1002D0000F900F900F90DF91CF910895CF93DF9300
:1002E00000D0CDB7DEB79A83898389819A81892B23
:1002F00019F01A82198201C0000089819A81892B24
:1003000009F02CC0809112018F3E81F08091120182
:1003100080958093120180911201880F80931201C1
:100320008091120180958093120117C08EEF809307
:1003300012018091290190912A01039754F4809130
:10034000290190912A01019690932A018093290115
:1003500004C010922A011092290100008091290105
:1003600090912A01880F991F880F991F8D5E9E4FCB
:10037000FC0180819181A281B381809335018091BC
:1003800012018093370189819A810F900F90DF913C
:10039000CF910895CF93DF93CDB7DEB780912F0132
:1003A0009091300181309105A1F08130910540F0AC
:1003B0008230910509F446C0039709F44AC050C041
:1003C00081E090E09093300180932F0110923301EF
:1003D0004FC080912B0190912C018130924080F090
:1003E00080912B0190912C018835924048F4109215
:1003F000330181E090E09093300180932F0137C06A
:1004000080912B0190912C018935924050F082E02F
:1004100090E09093300180932F0183E0809333012B
:1004200026C080912B0190912C0181159240F8F407
:1004300083E090E09093300180932F0184E08093DB
:10044000330115C081E090E09093300180932F013B
:100450000FC081E090E09093300180932F0108C09D
:1004600081E090E09093300180932F0101C0000063
:1004700080912F01909130018230910519F00397FE
:10048000D9F037C080913101873041F48091330138
:10049000833021F487E08093310128C080913101BD
:1004A000873021F180913301833001F58091310152
:1004B0008695809331011AC080913101803E41F4CC
:1004C00080913301843021F480EE8093310110C09B
:1004D00080913101803E61F080913301843041F49C
:1004E00080913101880F8093310102C0000001C06A
:1004F000000080913101809334018091320180931A
:1005000036010000DF91CF910895CF93DF93CDB7EF
:10051000DEB78AE790E02AE730E0F9012081206E1B
:10052000FC0120830000DF91CF910895CF93DF93EA
:10053000CDB7DEB780912D0190912E0181309105CC
:1005400069F08130910518F0029779F015C081E0CB
:1005500090E090932E0180932D0113C082E090E0F3
:1005600090932E0180932D010CC081E090E0909338
:100570002E0180932D0105C010922E0110922D01A5
:10058000000080912D0190912E018130910519F08C
:10059000029771F01AC088E290E020913501FC01C9
:1005A00020838BE290E020913701FC0120830DC075
:1005B00088E290E020913401FC0120838BE290E0FE
:1005C00020913601FC01208300000000DF91CF91D3
:1005D0000895CF93DF93CDB7DEB72E970FB6F8947B
:1005E000DEBF0FBECDBF81E290E0FC01108282E24F
:1005F00090E02FE0FC01208387E290E02FEFFC01E8
:10060000208388E290E0FC0110828AE290E02FEFE4
:10061000FC0120838BE290E0FC0110828FEE80933E
:10062000320180EE809331018AE090E0A0E0B0E0FA
:100630008B879C87AD87BE878CED95E0A0E0B0E00E
:1006400089839A83AB83BC831092300110922F016F
:1006500080E991E0A0E0B0E08D839E83AF83B8870E
:1006600010922E0110922D011A8619868B859C8579
:10067000AD85BE85BC01CD010E9440010E94900065
:100680000E94850288E790E0FC018081918190932F
:100690002C0180932B0189819A81AB81BC818C3D97
:1006A0009540A105B10550F089859A850E946E019B
:1006B0009A87898719821A821B821C828D819E816A
:1006C000AF81B88580399140A105B10530F00E9415
:1006D000CA011D821E821F8218860E949602000097
:1006E000809124018823E1F31092240129813A8129
:1006F0004B815C818B859C85AD85BE85820F931F68
:10070000A41FB51F89839A83AB83BC832D813E814F
:100710004F8158858B859C85AD85BE85820F931F43
:10072000A41FB51F8D839E83AF83B887ABCFF8948A
:02073000FFCFF9
:10073200000000020000000067000000000001004D
:100742000000FE0200000080000000010000001016
:04075200000000EFB4
:00000001FF
