:100000000C9446000C9465000C9465000C946500FB
:100010000C9465000C9465000C9465000C946500CC
:100020000C9465000C9465000C9465000C946500BC
:100030000C9465000C94DE000C9465000C94650033
:100040000C9465000C9465000C9465000C9465009C
:100050000C9465000C9465000C9465000C9465008C
:100060000C9465000C9465000C9465000C9465007C
:100070000C9465000C9465000C9465000C9465006C
:100080000C9465000C9465000C94650011241FBE4F
:10009000CFEFD0E4DEBFCDBF11E0A0E0B1E0EEEBEA
:1000A000F5E000E00BBF02C007900D92A832B10747
:1000B000D9F721E0A8E2B1E001C01D92A833B20750
:1000C000E1F70E9496020C94DD020C940000CF939D
:1000D000DF9300D01F92CDB7DEB789837B836A831D
:1000E00089818A3031F48A819B81BC018DE00E9434
:1000F000670080EC90E0FC018081882F90E08072A6
:100100009927892BB1F386EC90E02981FC012083AB
:1001100080E090E00F900F900F90DF91CF910895C5
:10012000CF93DF93CDB7DEB781E890E02BE0FC0101
:10013000208388E890E02DE730E0FC0131832083C4
:100140008FE690E022E0FC01208384E890E0FC014F
:100150001182108280910E0190910F01A0911001E7
:10016000B09111018093290190932A01A0932B0152
:10017000B0932C018FE590E02FE530E0F90120816C
:100180002068FC0120830000DF91CF910895CF9378
:10019000DF93CDB7DEB781E890E0FC01108200006C
:1001A000DF91CF910895CF93DF93CDB7DEB781E094
:1001B000809328010000DF91CF9108951F920F9244
:1001C00000905F000F92112400905B000F922F931C
:1001D0003F934F935F936F937F938F939F93AF93CF
:1001E000BF93EF93FF93CF93DF93CDB7DEB78091AB
:1001F000290190912A01A0912B01B0912C01019726
:10020000A109B1098093290190932A01A0932B01A0
:10021000B0932C018091290190912A01A0912B018A
:10022000B0912C01892B8A2B8B2B91F40E94D30047
:1002300080910E0190910F01A0911001B0911101D8
:100240008093290190932A01A0932B01B0932C0154
:100250000000DF91CF91FF91EF91BF91AF919F91FE
:100260008F917F916F915F914F913F912F910F905F
:1002700000925B000F9000925F000F901F90189506
:10028000CF93DF9300D000D0CDB7DEB769837A83F8
:100290008B839C8389819A81AB81BC8180930E0181
:1002A00090930F01A0931001B093110180910E0162
:1002B00090910F01A0911001B0911101809329013B
:1002C00090932A01A0932B01B0932C0100000F9072
:1002D0000F900F900F90DF91CF910895CF93DF9300
:1002E00000D01F92CDB7DEB79B838A8380912D010A
:1002F00090912E01880F991F880F991F8E5E9E4F37
:10030000FC0180819181A281B38189838A819B8153
:10031000892B19F01B821A8201C000008A819B81FF
:10032000892B09F02CC0809126018F3E81F08091AD
:10033000260180958093260180912601880F809365
:1003400026018091260180958093260117C08EEFAB
:100350008093270180912D0190912E01059729F41A
:1003600010922E0110922D0109C080912D019091C3
:100370002E01019690932E0180932D01000088E2BA
:1003800090E02981FC0120838BE290E020912601FE
:10039000FC0120838A819B810F900F900F90DF9149
:1003A000CF910895CF93DF93CDB7DEB7809132011F
:1003B0009091330181309105A1F08130910540F099
:1003C0008230910509F446C0039709F44AC050C031
:1003D00081E090E0909333018093320110923601D6
:1003E0004FC080913001909131018130924080F076
:1003F00080913001909131018835924048F41092FB
:10040000360181E090E0909333018093320137C050
:1004100080913001909131018935924050F082E015
:1004200090E0909333018093320183E08093360112
:1004300026C0809130019091310181159240F8F4ED
:1004400083E090E0909333018093320184E08093C5
:10045000360115C081E090E0909333018093320122
:100460000FC081E090E0909333018093320108C087
:1004700081E090E0909333018093320101C000004D
:1004800080913201909133018230910519F00397E8
:10049000D9F037C080913401813041F48091360128
:1004A000833021F480E88093340128C080913401A6
:1004B000813021F180913601833001F58091340142
:1004C0008695809334011AC080913401803841F4BC
:1004D00080913601843021F481E08093340110C092
:1004E00080913401803861F080913601843041F48C
:1004F00080913401880F8093340102C0000001C054
:1005000000000000DF91CF910895CF93DF93CDB726
:10051000DEB78AE790E02AE730E0F9012081206E1B
:10052000FC0120830000DF91CF910895CF93DF93EA
:1005300000D0CDB7DEB787E290E02FEFFC0120833B
:1005400088E290E0FC0110828AE290E02FEFFC014B
:1005500020838BE290E0FC01108281E290E0FC01BC
:10056000108282E290E02FE0FC01208310923301A0
:10057000109232011A82198264EF71E080E090E0FB
:100580000E9440010E9490000E94850288E790E04E
:10059000FC018081918190933101809330018981A8
:1005A0009A810E946E019A838983000080912801BC
:0E05B0008823E1F310922801E9CFF894FFCFE1
:1005BE0000000002000000006700000000000100C3
:1005CE0000000200000031300000343000003130F5
:0805DE00000032300000FEFEB7
:00000001FF
