:100000000C9450000C946F000C946F000C946F00D3
:100010000C946F000C946F000C946F000C946F00A4
:100020000C946F000C946F000C946F000C946F0094
:100030000C946F000C94E8000C946F000C946F000B
:100040000C946F000C946F000C946F000C946F0074
:100050000C946F000C946F000C946F000C946F0064
:100060000C946F000C946F000C946F000C946F0054
:100070000C946F000C946F000C946F000C946F0044
:100080000C946F000C946F000C946F0087058A0528
:100090008D0590059305960599059C059F05A2057C
:1000A00011241FBECFEFD0E4DEBFCDBF11E0A0E032
:1000B000B1E0E6E8FBE000E00BBF02C007900D9264
:1000C000A231B107D9F721E0A2E1B1E001C01D9250
:1000D000AB32B207E1F70E9441050C94C1050C94C4
:1000E0000000CF93DF9300D01F92CDB7DEB7898396
:1000F0007B836A8389818A3031F48A819B81BC0148
:100100008DE00E94710080EC90E0FC018081882FDE
:1001100090E080729927892BB1F386EC90E02981D9
:10012000FC01208380E090E00F900F900F90DF9112
:10013000CF910895CF93DF93CDB7DEB781E890E0FC
:100140002BE0FC01208388E890E02DE730E0FC0103
:10015000318320838FE690E022E0FC01208384E855
:1001600090E0FC011182108280910E0190910F01AC
:10017000A0911001B091110180931301909314018B
:10018000A0931501B09316018FE590E02FE530E0C4
:10019000F90120812068FC0120830000DF91CF91CC
:1001A0000895CF93DF93CDB7DEB781E890E0FC01EF
:1001B00010820000DF91CF910895CF93DF93CDB7E8
:1001C000DEB781E0809312010000DF91CF910895A6
:1001D0001F920F9200905F000F92112400905B001D
:1001E0000F922F933F934F935F936F937F938F93D0
:1001F0009F93AF93BF93EF93FF93CF93DF93CDB7CD
:10020000DEB78091130190911401A0911501B09176
:1002100016010197A109B10980931301909314016C
:10022000A0931501B09316018091130190911401D0
:10023000A0911501B0911601892B8A2B8B2B91F47B
:100240000E94DD0080910E0190910F01A09110019C
:10025000B09111018093130190931401A0931501A3
:10026000B09316010000DF91CF91FF91EF91BF9104
:10027000AF919F918F917F916F915F914F913F913E
:100280002F910F9000925B000F9000925F000F90F3
:100290001F901895CF93DF9300D000D0CDB7DEB775
:1002A00069837A838B839C8389819A81AB81BC81AA
:1002B00080930E0190930F01A0931001B093110150
:1002C00080910E0190910F01A0911001B091110148
:1002D0008093130190931401A0931501B09316011C
:1002E00000000F900F900F900F90DF91CF91089525
:1002F000CF93DF93CDB7DEB780911D0190911E01A2
:10030000892B39F481E090E090931E0180931D01C8
:1003100005C010921E0110921D01000080911D0168
:1003200090911E01019751F488E290E028E0FC01D1
:1003300020838BE290E0FC01108205C010921E0128
:1003400010921D0100000000DF91CF910895CF931E
:10035000DF93CDB7DEB780911B0190911C018130F6
:10036000910581F08130910530F08230910589F05E
:100370000397B1F01CC081E090E090931C01809342
:100380001B011AC082E090E090931C0180931B0136
:1003900013C083E090E090931C0180931B010CC07C
:1003A00081E090E090931C0180931B0105C01092A6
:1003B0001C0110921B01000080911B0190911C01F7
:1003C0008230910589F083309105C9F0019709F0D9
:1003D00021C088E290E020E1FC0120838BE290E0E4
:1003E00022E0FC01208316C088E290E028E0FC01B6
:1003F00020838BE290E02AE0FC0120830BC088E29E
:1004000090E024E0FC0120838BE290E028E0FC01F6
:10041000208300000000DF91CF910895CF93DF93F8
:10042000CDB7DEB78091290190912A0181309105E5
:1004300081F08130910530F08230910589F0039789
:10044000B1F01CC081E090E090932A0180932901D3
:100450001AC082E090E090932A018093290113C092
:1004600083E090E090932A01809329010CC081E001
:1004700090E090932A018093290105C010922A01EF
:100480001092290100008091290190912A01823067
:10049000910589F083309105C9F0019709F020C0DA
:1004A00088E290E020E1FC0120838BE290E02AE0EA
:1004B000FC01208315C088E290E028E0FC01208345
:1004C0008BE290E02AE0FC0120830AC088E290E001
:1004D00024E0FC0120838BE290E0FC01108200000C
:1004E0000000DF91CF910895CF93DF93CDB7DEB7B2
:1004F00080912701909128018130910581F0813010
:10050000910530F08230910589F00397B1F01CC05D
:1005100081E090E090932801809327011AC082E047
:1005200090E0909328018093270113C083E090E02E
:1005300090932801809327010CC081E090E0909374
:1005400028018093270105C01092280110922701ED
:10055000000080912701909128018230910589F057
:1005600083309105C9F0019709F020C088E290E03E
:1005700020E1FC0120838BE290E028E1FC01208354
:1005800015C088E290E028E0FC0120838BE290E037
:100590002BE1FC0120830AC088E290E024E0FC010A
:1005A00020838BE290E0FC01108200000000DF91CC
:1005B000CF910895CF93DF93CDB7DEB78091170128
:1005C000909118018130910581F08130910530F0D2
:1005D0008230910589F00397B1F01CC081E090E072
:1005E00090931801809317011AC082E090E09093D5
:1005F00018018093170113C083E090E090931801D5
:10060000809317010CC081E090E0909318018093D3
:10061000170105C010921801109217010000809177
:100620001701909118018230910589F0833091056E
:10063000C9F0019709F021C088E290E020E1FC01B7
:1006400020838BE290E028E0FC01208316C088E242
:1006500090E024E0FC0120838BE290E022E0FC01AA
:1006600020830BC088E290E028E0FC0120838BE22D
:1006700090E02AE0FC01208300000000DF91CF9190
:100680000895CF93DF93CDB7DEB780912501909188
:1006900026018130910581F08130910530F0823062
:1006A000910589F00397B1F01CC081E090E0909330
:1006B0002601809325011AC082E090E090932601E4
:1006C0008093250113C083E090E0909326018093EE
:1006D00025010CC081E090E09093260180932501D4
:1006E00005C010922601109225010000809125017D
:1006F000909126018230910581F083309105C1F0FF
:10070000019709F020C088E290E020E1FC012083FD
:100710008BE290E0FC01108216C088E290E028E0B5
:10072000FC0120838BE290E02AE0FC0120830BC0D7
:1007300088E290E024E0FC0120838BE290E022E05C
:10074000FC01208300000000DF91CF910895CF933A
:10075000DF93CDB7DEB78091190190911A018130F6
:10076000910569F08130910518F0029779F015C074
:1007700081E090E090931A018093190113C082E008
:1007800090E090931A01809319010CC081E090E0F1
:1007900090931A018093190105C010921A011092CA
:1007A000190100008091190190911A018130910581
:1007B00019F0029761F015C088E290E02CE1FC018D
:1007C00020838BE290E02EE1FC0120830AC088E2C6
:1007D00090E024E0FC0120838BE290E0FC01108299
:1007E00000000000DF91CF910895CF93DF93CDB744
:1007F000DEB780912301909124018130910581F031
:100800008130910530F08230910589F00397B1F085
:100810001CC081E090E090932401809323011AC0D2
:1008200082E090E0909324018093230113C083E041
:1008300090E090932401809323010CC081E090E02C
:10084000909324018093230105C0109224011092FB
:1008500023010000809123019091240182309105B1
:1008600081F083309105C1F0019709F01FC088E243
:1008700090E020E1FC0120838BE290E0FC011082FB
:1008800015C088E290E028E0FC0120838BE290E034
:100890002AE0FC0120830AC088E290E024E0FC0109
:1008A00020838BE290E0FC01108200000000DF91C9
:1008B000CF910895CF93DF93CDB7DEB7809121011B
:1008C000909122018130910581F08130910530F0C5
:1008D0008230910589F00397B1F01CC081E090E06F
:1008E00090932201809321011AC082E090E09093BE
:1008F00022018093210113C083E090E090932201B4
:10090000809321010CC081E090E0909322018093BC
:10091000210105C010922201109221010000809156
:100920002101909122018230910589F08330910557
:10093000C9F0019709F020C088E290E020E1FC01B5
:1009400020838BE290E028E1FC01208315C088E23F
:1009500090E028E0FC0120838BE290E02AE1FC019A
:1009600020830AC088E290E024E0FC0120838BE22F
:1009700090E0FC01108200000000DF91CF9108950B
:10098000CF93DF93CDB7DEB780911F019091200107
:1009900082309105E1F08330910528F4009749F009
:1009A000019771F029C083309105C1F00497E9F0F7
:1009B00023C081E090E09093200180931F0121C02B
:1009C00082E090E09093200180931F011AC083E0A1
:1009D00090E09093200180931F0113C084E090E089
:1009E0009093200180931F010CC081E090E09093D0
:1009F000200180931F0105C01092200110921F0159
:100A0000000080911F019091200182309105B1F08A
:100A10008330910518F4019739F02FC08330910588
:100A2000B9F0049701F129C088E290E020E2FC01CE
:100A300020838BE290E0FC0110821FC088E290E0EE
:100A400028E0FC0120838BE290E0FC01108215C0BD
:100A500088E290E024E0FC0120838BE290E02EE02D
:100A6000FC0120830AC088E290E022E0FC012083A0
:100A70008BE290E0FC01108200000000DF91CF913A
:100A80000895CF93DF9300D000D0CDB7DEB787E2D3
:100A900090E02FEFFC01208388E290E0FC011082BF
:100AA0008AE290E02FEFFC0120838BE290E0FC01D2
:100AB000108281E290E0FC01108282E290E02FE05F
:100AC000FC01208381E090E09C838B8380ED97E0A4
:100AD0009A83898361E070E080E090E00E944A019F
:100AE0000E949A0033C08B819C81092E000CAA0BB6
:100AF000BB0B41E050E029E030E0841B950B281748
:100B0000390718F18A5B9F4FFC010C94B8050E94CD
:100B100078011CC00E94A70119C00E940E0216C0D5
:100B20000E94740213C00E94DA0210C00E944103A6
:100B30000DC00E94A7030AC00E94F50307C00E94CF
:100B40005A0404C00E94C00401C0000089819A8137
:100B5000803D974044F60000809112018823E1F324
:100B60001092120189819A8101969A838983BACF62
:100B7000EE0FFF1F0024001C0BBE0790F691E02D26
:060B80000994F894FFCF78
:100B860000000002000000007100000000000100EB
:020B960000005D
:00000001FF
