:100000000C944D000C946C000C946C000C946C00DF
:100010000C946C000C946C000C946C000C946C00B0
:100020000C946C000C946C000C946C000C946C00A0
:100030000C946C000C94E5000C946C000C946C0017
:100040000C946C000C946C000C946C000C946C0080
:100050000C946C000C946C000C946C000C946C0070
:100060000C946C000C946C000C946C000C946C0060
:100070000C946C000C946C000C946C000C946C0050
:100080000C946C000C946C000C946C0098049B0411
:100090009E04A104A404A704AA0411241FBECFEF48
:1000A000D0E4DEBFCDBF11E0A0E0B1E0E2E8F9E0CE
:1000B00000E00BBF02C007900D92A231B107D9F743
:1000C00021E0A2E1B1E001C01D92A732B207E1F741
:1000D0000E9458040C94BF040C940000CF93DF934B
:1000E00000D01F92CDB7DEB789837B836A83898175
:1000F0008A3031F48A819B81BC018DE00E946E00C0
:1001000080EC90E0FC018081882F90E0807299273C
:10011000892BB1F386EC90E02981FC01208380E0FB
:1001200090E00F900F900F90DF91CF910895CF93B3
:10013000DF93CDB7DEB781E890E02BE0FC012083B0
:1001400088E890E02DE730E0FC01318320838FE6E2
:1001500090E022E0FC01208384E890E0FC01118221
:10016000108280910E0190910F01A0911001B09129
:1001700011018093130190931401A0931501B09382
:1001800016018FE590E02FE530E0F901208120682D
:10019000FC0120830000DF91CF910895CF93DF937E
:1001A000CDB7DEB781E890E0FC0110820000DF915E
:1001B000CF910895CF93DF93CDB7DEB781E08093E1
:1001C00012010000DF91CF9108951F920F920090CD
:1001D0005F000F92112400905B000F922F933F93CA
:1001E0004F935F936F937F938F939F93AF93BF933F
:1001F000EF93FF93CF93DF93CDB7DEB780911301D9
:1002000090911401A0911501B09116010197A109D7
:10021000B1098093130190931401A0931501B09339
:1002200016018091130190911401A0911501B091D4
:100230001601892B8A2B8B2B91F40E94DA00809176
:100240000E0190910F01A0911001B09111018093C6
:10025000130190931401A0931501B09316010000AF
:10026000DF91CF91FF91EF91BF91AF919F918F91CE
:100270007F916F915F914F913F912F910F900092DD
:100280005B000F9000925F000F901F901895CF9326
:10029000DF9300D000D0CDB7DEB769837A838B833C
:1002A0009C8389819A81AB81BC8180930E0190935C
:1002B0000F01A0931001B093110180910E01909154
:1002C0000F01A0911001B09111018093130190933F
:1002D0001401A0931501B093160100000F900F9028
:1002E0000F900F90DF91CF910895CF93DF93CDB70B
:1002F000DEB780911D0190911E01892B39F481E0B8
:1003000090E090931E0180931D0105C010921E0184
:1003100010921D01000080911D0190911E01019716
:1003200051F488E290E028E0FC0120838BE290E029
:10033000FC01108205C010921E0110921D010000E8
:100340000000DF91CF910895CF93DF93CDB7DEB753
:1003500080911B0190911C018130910581F08130C9
:10036000910530F08230910589F00397B1F01CC0FF
:1003700081E090E090931C0180931B011AC082E001
:1003800090E090931C0180931B0113C083E090E0E8
:1003900090931C0180931B010CC081E090E090932E
:1003A0001C0180931B0105C010921C0110921B01BF
:1003B000000080911B0190911C018230910589F011
:1003C00083309105C9F0019709F021C088E290E0DF
:1003D00020E1FC0120838BE290E022E0FC012083FD
:1003E00016C088E290E028E0FC0120838BE290E0D8
:1003F0002AE0FC0120830BC088E290E024E0FC01AD
:1004000020838BE290E028E0FC01208300000000C4
:10041000DF91CF910895CF93DF93CDB7DEB7809171
:100420002301909124018130910581F08130910563
:1004300030F08230910589F00397B1F01CC081E063
:1004400090E090932401809323011AC082E090E011
:10045000909324018093230113C083E090E0909354
:100460002401809323010CC081E090E0909324014B
:100470008093230105C010922401109223010000F3
:1004800080912301909124018230910589F083307D
:100490009105C9F0019709F020C088E290E020E1C1
:1004A000FC0120838BE290E02AE0FC01208315C050
:1004B00088E290E028E0FC0120838BE290E02AE0D3
:1004C000FC0120830AC088E290E024E0FC01208344
:1004D0008BE290E0FC01108200000000DF91CF91E0
:1004E0000895CF93DF93CDB7DEB78091210190912E
:1004F00022018130910581F08130910530F0823008
:10050000910589F00397B1F01CC081E090E09093D1
:100510002201809321011AC082E090E09093220191
:100520008093210113C083E090E090932201809397
:1005300021010CC081E090E0909322018093210181
:1005400005C010922201109221010000809121012A
:10055000909122018230910589F083309105C9F094
:10056000019709F020C088E290E020E1FC0120839F
:100570008BE290E028E1FC01208315C088E290E046
:1005800028E0FC0120838BE290E02BE1FC0120833A
:100590000AC088E290E024E0FC0120838BE290E036
:1005A000FC01108200000000DF91CF910895CF93ED
:1005B000DF93CDB7DEB7809117019091180181309C
:1005C000910581F08130910530F08230910589F0FC
:1005D0000397B1F01CC081E090E0909318018093E4
:1005E00017011AC082E090E09093180180931701E0
:1005F00013C083E090E090931801809317010CC022
:1006000081E090E0909318018093170105C010924B
:1006100018011092170100008091170190911801A4
:100620008230910589F083309105C9F0019709F076
:1006300021C088E290E020E1FC0120838BE290E081
:1006400028E0FC01208316C088E290E024E0FC0151
:1006500020838BE290E022E0FC0120830BC088E243
:1006600090E028E0FC0120838BE290E02AE0FC018E
:10067000208300000000DF91CF910895CF93DF9396
:10068000CDB7DEB780911F01909120018130910597
:1006900081F08130910530F08230910589F0039727
:1006A000B1F01CC081E090E09093200180931F0185
:1006B0001AC082E090E09093200180931F0113C044
:1006C00083E090E09093200180931F010CC081E0B3
:1006D00090E09093200180931F0105C010922001AB
:1006E00010921F01000080911F0190912001823023
:1006F000910581F083309105C1F0019709F020C088
:1007000088E290E020E1FC0120838BE290E0FC0194
:10071000108216C088E290E028E0FC0120838BE282
:1007200090E02AE0FC0120830BC088E290E024E006
:10073000FC0120838BE290E022E0FC01208300009A
:100740000000DF91CF910895CF93DF93CDB7DEB74F
:100750008091190190911A018130910569F08130E1
:10076000910518F0029779F015C081E090E0909320
:100770001A018093190113C082E090E090931A014E
:10078000809319010CC081E090E090931A0180934E
:10079000190105C010921A011092190100008091F0
:1007A000190190911A018130910519F0029761F0B9
:1007B00015C088E290E02CE1FC0120838BE290E000
:1007C0002EE1FC0120830AC088E290E024E0FC01D5
:1007D00020838BE290E0FC01108200000000DF919A
:1007E000CF910895CF93DF93CDB7DEB780912501E8
:1007F000909126018130910581F08130910530F092
:100800008230910589F00397B1F01CC081E090E03F
:1008100090932601809325011AC082E090E0909386
:1008200026018093250113C083E090E09093260178
:10083000809325010CC081E090E090932601809385
:10084000250105C01092260110922501000080911B
:100850002501909126018230910589F08330910520
:10086000C9F0019709F020C088E290E020E1FC0186
:1008700020838BE290E028E1FC01208315C088E210
:1008800090E028E0FC0120838BE290E02BE1FC016A
:1008900020830AC088E290E024E0FC0120838BE200
:1008A00090E0FC01108200000000DF91CF910895DC
:1008B000CF93DF9300D0CDB7DEB787E290E02FEF84
:1008C000FC01208388E290E0FC0110828AE290E043
:1008D0002FEFFC0120838BE290E0FC01108281E28B
:1008E00090E0FC01108282E290E02FE0FC01208386
:1008F00086E090E09A83898361E070E080E090E098
:100900000E9447010E94970089819A81092E000C5C
:10091000AA0BBB0B41E050E026E030E0841B950BB6
:1009200028173907D0F08A5B9F4FFC010C94B6045E
:100930000E94750113C00E94A40110C00E940B0206
:100940000DC00E9471020AC00E94D70207C00E9417
:100950003E0304C00E94A40301C000000000809177
:1009600012018823E1F310921201CECFEE0FFF1F88
:100970000024001C0BBE0790F691E02D0994F8941A
:02098000FFCFA7
:1009820000000002000000006E00000000000100F4
:02099200000063
:00000001FF
