:100000000C9446000C9465000C9465000C946500FB
:100010000C9465000C9465000C9465000C946500CC
:100020000C9465000C9465000C9465000C946500BC
:100030000C9465000C94DE000C9465000C94650033
:100040000C9465000C9465000C9465000C9465009C
:100050000C9465000C9465000C9465000C9465008C
:100060000C9465000C9465000C9465000C9465007C
:100070000C9465000C9465000C9465000C9465006C
:100080000C9465000C9465000C94650011241FBE4F
:10009000CFEFD0E4DEBFCDBF11E0A0E0B1E0E6EBF2
:1000A000F7E000E00BBF02C007900D92AE31B10740
:1000B000D9F721E0AEE1B1E001C01D92A433B2074F
:1000C000E1F70E9401030C94D9030C940000CF9334
:1000D000DF9300D01F92CDB7DEB789837B836A831D
:1000E00089818A3031F48A819B81BC018DE00E9434
:1000F000670080EC90E0FC018081882F90E08072A6
:100100009927892BB1F386EC90E02981FC012083AB
:1001100080E090E00F900F900F90DF91CF910895C5
:10012000CF93DF93CDB7DEB781E890E02BE0FC0101
:10013000208388E890E02DE730E0FC0131832083C4
:100140008FE690E022E0FC01208384E890E0FC014F
:100150001182108280910E0190910F01A0911001E7
:10016000B091110180931F0190932001A093210170
:10017000B09322018FE590E02FE530E0F901208176
:100180002068FC0120830000DF91CF910895CF9378
:10019000DF93CDB7DEB781E890E0FC01108200006C
:1001A000DF91CF910895CF93DF93CDB7DEB781E094
:1001B00080931E010000DF91CF9108951F920F924E
:1001C00000905F000F92112400905B000F922F931C
:1001D0003F934F935F936F937F938F939F93AF93CF
:1001E000BF93EF93FF93CF93DF93CDB7DEB78091AB
:1001F0001F0190912001A0912101B091220101974E
:10020000A109B10980931F0190932001A0932101BE
:10021000B093220180911F0190912001A0912101B2
:10022000B0912201892B8A2B8B2B91F40E94D30051
:1002300080910E0190910F01A0911001B0911101D8
:1002400080931F0190932001A0932101B09322017C
:100250000000DF91CF91FF91EF91BF91AF919F91FE
:100260008F917F916F915F914F913F912F910F905F
:1002700000925B000F9000925F000F901F90189506
:10028000CF93DF9300D000D0CDB7DEB769837A83F8
:100290008B839C8389819A81AB81BC8180930E0181
:1002A00090930F01A0931001B093110180910E0162
:1002B00090910F01A0911001B091110180931F0145
:1002C00090932001A0932101B093220100000F9090
:1002D0000F900F900F90DF91CF910895CF93DF9300
:1002E00000D000D01F92CDB7DEB79D838C83809164
:1002F0003201882F90E09A83898380912F018B832C
:100300008C819D81892B19F01D821C8201C0000007
:100310008C819D81892B09F031C089819A818F3E22
:10032000910599F089819A81809590959A83898326
:1003300089819A81880F991F9A83898389819A81FB
:10034000809590959A83898318C08EEF90E09A8368
:1003500089838091230190912401039754F4809123
:10036000230190912401019690932401809323010D
:1003700004C01092240110922301000080912301F7
:1003800090912401880F991F880F991F8E5E9E4FB0
:10039000FC0180819181A281B38180932F018981A9
:1003A000809332018C819D810F900F900F900F9060
:1003B0000F90DF91CF910895CF93DF9300D000D0BD
:1003C000CDB7DEB780913001909131019C838B8352
:1003D00080912E01882F90E09A8389838091290152
:1003E00090912A0181309105A1F08130910540F072
:1003F0008230910509F446C0039709F44AC050C001
:1004000081E090E090932A018093290110922D01C0
:100410004DC080912501909126018130924080F05D
:1004200080912501909126018835924048F41092E0
:100430002D0181E090E090932A018093290135C03D
:1004400080912501909126018935924050F082E0FB
:1004500090E090932A018093290183E080932D01FD
:1004600024C0809125019091260181159240E8F4E5
:1004700083E090E090932A018093290184E08093A7
:100480002D0113C081E090E090932A01809329010F
:100490000DC081E090E090932A018093290106C06D
:1004A00010922A011092290101C0000080912901B7
:1004B00090912A018230910519F00397E9F03CC030
:1004C00089819A81079749F480912D01833029F41D
:1004D00087E090E09A8389832CC089819A8107976D
:1004E00041F180912D01833021F589819A81969582
:1004F00087959A8389831DC089819A81803E910561
:1005000049F480912D01843029F480EE90E09A83A3
:10051000898311C080912E01803E69F080912D0168
:10052000843049F489819A81880F991F9A8389833D
:1005300002C0000001C000008B819C8190933101BA
:1005400080933001898180932E0100000F900F90DD
:100550000F900F90DF91CF910895CF93DF93CDB798
:10056000DEB780912701909128018130910569F0D3
:100570008130910518F0029779F015C081E090E084
:10058000909328018093270113C082E090E090931C
:100590002801809327010CC081E090E0909328010E
:1005A0008093270105C010922801109227010000B6
:1005B0008091270190912801019769F48BE290E0E6
:1005C00020913201FC01208388E290E020912F01EC
:1005D000FC01208301C000000000DF91CF9108954D
:1005E000CF93DF93CDB7DEB78AE790E02AE730E01C
:1005F000F9012081206EFC0120830000DF91CF9162
:100600000895CF93DF93CDB7DEB763970FB6F89415
:10061000DEBF0FBECDBF81E290E0FC01108282E21E
:1006200090E02FE0FC01208387E290E02FEFFC01B7
:10063000208388E290E0FC0110828AE290E02FEFB4
:10064000FC0120838BE290E0FC0110828AE090E0C4
:10065000A0E0B0E08F87988BA98BBA8B8CED95E0EA
:10066000A0E0B0E089839A83AB83BC838EEF8B8B51
:1006700010922A01109229018FEE90E0909331019F
:100680008093300180EE80932E0180E991E0A0E01C
:10069000B0E08D839E83AF83B887109228011092BB
:1006A00027018AE090E0A0E0B0E089879A87AB87D5
:1006B000BC871E861D868F859889A989BA89BC0149
:1006C000CD010E9440010E9490000E94F00288E744
:1006D00090E0FC0180819181909326018093250117
:1006E00089819A81AB81BC818D3D9540A105B10581
:1006F00050F48D859E850E946E019E878D8719829C
:100700001A821B821C828D819E81AF81B8858139BE
:100710009140A105B10530F40E94DC011D821E82CA
:100720001F82188689859A85AB85BC85853691059B
:10073000A105B10530F40E94AD0219861A861B8608
:100740001C86000080911E018823E1F310921E0197
:1007500029813A814B815C818F859889A989BA89E1
:10076000820F931FA41FB51F89839A83AB83BC8319
:100770002D813E814F8158858F859889A989BA89B5
:10078000820F931FA41FB51F8D839E83AF83B887ED
:1007900029853A854B855C858F859889A989BA8991
:1007A000820F931FA41FB51F89879A87AB87BC87C9
:0607B0008ECFF894FFCF8C
:1007B60000000002000000006700000000000100C9
:0E07C6000000020000008000000001000000A2
:00000001FF
