:100000000C9446000C9465000C9465000C946500FB
:100010000C9465000C9465000C9465000C946500CC
:100020000C9465000C9465000C9465000C946500BC
:100030000C9465000C94DE000C9465000C94650033
:100040000C9465000C9465000C9465000C9465009C
:100050000C9465000C9465000C9465000C9465008C
:100060000C9465000C9465000C9465000C9465007C
:100070000C9465000C9465000C9465000C9465006C
:100080000C9465000C9465000C94650011241FBE4F
:10009000CFEFD0E4DEBFCDBF11E0A0E0B1E0E0E201
:1000A000F6E000E00BBF02C007900D92A232B1074C
:1000B000D9F721E0A2E2B1E001C01D92A033B2075E
:1000C000E1F70E949E020C940E030C940000CF9363
:1000D000DF9300D01F92CDB7DEB789837B836A831D
:1000E00089818A3031F48A819B81BC018DE00E9434
:1000F000670080EC90E0FC018081882F90E08072A6
:100100009927892BB1F386EC90E02981FC012083AB
:1001100080E090E00F900F900F90DF91CF910895C5
:10012000CF93DF93CDB7DEB781E890E02BE0FC0101
:10013000208388E890E02DE730E0FC0131832083C4
:100140008FE690E022E0FC01208384E890E0FC014F
:100150001182108280910E0190910F01A0911001E7
:10016000B09111018093230190932401A093250164
:10017000B09326018FE590E02FE530E0F901208172
:100180002068FC0120830000DF91CF910895CF9378
:10019000DF93CDB7DEB781E890E0FC01108200006C
:1001A000DF91CF910895CF93DF93CDB7DEB781E094
:1001B000809322010000DF91CF9108951F920F924A
:1001C00000905F000F92112400905B000F922F931C
:1001D0003F934F935F936F937F938F939F93AF93CF
:1001E000BF93EF93FF93CF93DF93CDB7DEB78091AB
:1001F000230190912401A0912501B091260101973E
:10020000A109B1098093230190932401A0932501B2
:10021000B09326018091230190912401A0912501A2
:10022000B0912601892B8A2B8B2B91F40E94D3004D
:1002300080910E0190910F01A0911001B0911101D8
:100240008093230190932401A0932501B09326016C
:100250000000DF91CF91FF91EF91BF91AF919F91FE
:100260008F917F916F915F914F913F912F910F905F
:1002700000925B000F9000925F000F901F90189506
:10028000CF93DF9300D000D0CDB7DEB769837A83F8
:100290008B839C8389819A81AB81BC8180930E0181
:1002A00090930F01A0931001B093110180910E0162
:1002B00090910F01A0911001B09111018093230141
:1002C00090932401A0932501B093260100000F9084
:1002D0000F900F900F90DF91CF910895CF93DF9300
:1002E00000D0CDB7DEB79A83898389819A81892B23
:1002F00019F01A82198201C0000089819A81892B24
:1003000009F02CC0809113018F3E81F08091130180
:1003100080958093130180911301880F80931301BE
:100320008091130180958093130117C08EEF809305
:1003300013018091270190912801039754F4809133
:10034000270190912801019690932801809327011D
:1003500004C01092280110922701000028E230E02A
:100360008091270190912801880F991F880F991F6C
:100370008C5E9E4FFC0180819181A281B381F90145
:1003800080838BE290E020911301FC01208389811E
:100390009A810F900F90DF91CF910895CF93DF93C3
:1003A000CDB7DEB780912B0190912C018130910562
:1003B000A1F08130910540F08230910509F446C0EA
:1003C000039709F44AC050C081E090E090932C015B
:1003D00080932B0110922E014FC0809129019091A2
:1003E0002A018130924080F08091290190912A0168
:1003F0008835924048F410922E0181E090E090936D
:100400002C0180932B0137C08091290190912A0102
:100410008935924050F082E090E090932C018093D7
:100420002B0183E080932E0126C0809129019091B9
:100430002A0181159240F8F483E090E090932C011A
:1004400080932B0184E080932E0115C081E090E021
:1004500090932C0180932B010FC081E090E090934A
:100460002C0180932B0108C081E090E090932C0137
:1004700080932B0101C0000080912B0190912C01F1
:100480008230910519F00397D9F037C0809112019D
:10049000873041F480912E01833021F487E08093EE
:1004A000120128C080911201873021F180912E0124
:1004B000833001F5809112018695809312011AC054
:1004C00080911201803E41F480912E01843021F40C
:1004D00080EE8093120110C080911201803E61F085
:1004E00080912E01843041F480911201880F809315
:1004F000120102C0000001C0000088E290E02091DB
:100500001201FC0120838BE290E020912001FC018C
:1005100020830000DF91CF910895CF93DF93CDB773
:10052000DEB78AE790E02AE730E0F9012081206E0B
:10053000FC0120830000DF91CF910895CF93DF93DA
:10054000CDB7DEB72A970FB6F894DEBF0FBECDBF8A
:1005500081E290E0FC01108282E290E02FE0FC0159
:10056000208387E290E02FEFFC01208388E290E077
:10057000FC0110828AE290E02FEFFC0120838BE2E5
:1005800090E0FC01108284EF91E0A0E0B0E08D8368
:100590009E83AF83B8878CED95E0A0E0B0E08983BF
:1005A0009A83AB83BC838EEF80932D0180EE809382
:1005B000120110922C0110922B011A8619868D813E
:1005C0009E81AF81B885BC01CD010E9440010E948F
:1005D00090000E948D0288E790E0FC01808191816B
:1005E00090932A01809329010E94CE0100008091FE
:1005F00022018823E1F31092220129813A814B8163
:100600005C818D819E81AF81B885820F931FA41F6D
:10061000B51F89839A83AB83BC83DDCFF894FFCF6A
:100620000000000200000000670000000000010060
:100630000000E0FE02000000800000000100000059
:02064000EF00C9
:00000001FF
