:100000000C9451000C9470000C9470000C947000CF
:100010000C9470000C9470000C9470000C947000A0
:100020000C9470000C9470000C9470000C94700090
:100030000C9470000C94E9000C9470000C94700007
:100040000C9470000C9470000C9470000C94700070
:100050000C9470000C9470000C9470000C94700060
:100060000C9470000C9470000C9470000C94700050
:100070000C9470000C9470000C9470000C94700040
:100080000C9470000C9470000C94700016091909FF
:100090001C091F092209250928092B092E093109E4
:1000A000340911241FBECFEFD0E4DEBFCDBF11E075
:1000B000A0E0B1E0E8E8F2E100E00BBF02C0079089
:1000C0000D92A432B107D9F721E0A4E2B1E001C05A
:1000D0001D92A135B207E1F70E9409080C9442096C
:1000E0000C940000CF93DF9300D01F92CDB7DEB702
:1000F00089837B836A8389818A3031F48A819B81F9
:10010000BC018DE00E94720080EC90E0FC018081D7
:10011000882F90E080729927892BB1F386EC90E0CC
:100120002981FC01208380E090E00F900F900F90D8
:10013000DF91CF910895CF93DF93CDB7DEB781E8FC
:1001400090E02BE0FC01208388E890E02DE730E090
:10015000FC01318320838FE690E022E0FC012083C4
:1001600084E890E0FC011182108280910E01909150
:100170000F01A0911001B09111018093250190937E
:100180002601A0932701B09328018FE590E02FE589
:1001900030E0F90120812068FC0120830000DF911C
:1001A000CF910895CF93DF93CDB7DEB781E890E08C
:1001B000FC0110820000DF91CF910895CF93DF936F
:1001C000CDB7DEB781E0809324010000DF91CF91AD
:1001D00008951F920F9200905F000F9211240090DB
:1001E0005B000F922F933F934F935F936F937F9397
:1001F0008F939F93AF93BF93EF93FF93CF93DF932F
:10020000CDB7DEB78091250190912601A0912701FD
:10021000B09128010197A109B1098093250190931C
:100220002601A0932701B093280180912501909188
:100230002601A0912701B0912801892B8A2B8B2BB5
:1002400091F40E94DE0080910E0190910F01A09127
:100250001001B09111018093250190932601A09384
:100260002701B09328010000DF91CF91FF91EF911A
:10027000BF91AF919F918F917F916F915F914F91BE
:100280003F912F910F9000925B000F9000925F00C2
:100290000F901F901895CF93DF9300D000D0CDB76B
:1002A000DEB769837A838B839C8389819A81AB8152
:1002B000BC8180930E0190930F01A0931001B09325
:1002C000110180910E0190910F01A0911001B09148
:1002D00011018093250190932601A0932701B093EB
:1002E000280100000F900F900F900F90DF91CF9199
:1002F0000895CF93DF9300D0CDB7DEB79A8389837B
:1003000089819A81892B19F41A82198203C01A8271
:100310001982000089819A81892B09F02CC0809173
:1003200012018F3E81F0809112018095809312011D
:1003300080911201880F80931201809112018095A3
:100340008093120117C08EEF8093120180912901D2
:1003500090912A01039754F48091290190912A01E8
:10036000019690932A018093290104C010922A01DA
:100370001092290100008091290190912A01880F93
:10038000991F880F991F8D5E9E4FFC01808191817E
:10039000A281B381809347018091120180934B0128
:1003A00089819A810F900F90DF91CF910895CF931B
:1003B000DF93CDB7DEB7809137019091380181305E
:1003C0009105A1F08130910540F08230910509F44A
:1003D00046C0039709F44AC050C081E090E0909372
:1003E000380180933701109245014FC0809131014F
:1003F000909132018130924080F080913101909152
:1004000032018835924048F41092450181E090E035
:10041000909338018093370137C0809131019091DA
:1004200032018935924050F082E090E0909338019B
:100430008093370183E08093450126C0809131018C
:100440009091320181159240F8F483E090E090930E
:1004500038018093370184E08093450115C081E025
:1004600090E090933801809337010FC081E090E0D5
:10047000909338018093370108C081E090E0909319
:1004800038018093370101C00000809137019091BD
:1004900038018230910519F00397D9F037C0809167
:1004A0003901873041F480914501833021F487E0A0
:1004B0008093390128C080913901873021F18091E2
:1004C0004501833001F5809139018695809339018A
:1004D0001AC080913901803E41F4809145018430F9
:1004E00021F480EE8093390110C080913901803E63
:1004F00061F080914501843041F480913901880F89
:100500008093390102C0000001C0000080913901D0
:100510008093460180913A01809348010000DF9169
:10052000CF910895CF93DF93CDB7DEB78AE790E000
:100530002AE730E0F9012081206EFC0120830000D1
:10054000DF91CF910895CF93DF93CDB7DEB7809140
:100550003501909136018130910569F08130910526
:1005600018F0029779F015C081E090E09093360181
:100570008093350113C082E090E090933601809320
:1005800035010CC081E090E09093360180933501F5
:1005900005C010923601109235010000809135019E
:1005A000909136018130910519F0029771F01AC0CF
:1005B00088E290E020914701FC0120838BE290E0EB
:1005C00020914B01FC0120830DC088E290E0209136
:1005D0004601FC0120838BE290E020914801FC0160
:1005E000208300000000DF91CF910895CF93DF9327
:1005F000CDB7DEB780912F01909130018130910508
:1006000081F08130910530F08230910589F00397B7
:10061000B1F01CC081E090E09093300180932F01F5
:100620001AC082E090E09093300180932F0113C0B4
:1006300083E090E09093300180932F010CC081E023
:1006400090E09093300180932F0105C0109230010B
:1006500010922F01000080912F0190913001823083
:10066000910581F083309105C1F0019709F01FC019
:1006700088E290E020E2FC0120838BE290E0FC0124
:10068000108215C088E290E020E1FC0120838BE21B
:1006900090E02EE0FC0120830AC088E290E028E090
:1006A000FC0120838BE290E0FC011082000000003E
:1006B000DF91CF910895CF93DF93CDB7DEB78091CF
:1006C0003B0190913C01892B39F481E090E09093BB
:1006D0003C0180933B0105C010923C0110923B010C
:1006E000000080913B0190913C01019751F488E218
:1006F00090E028E0FC0120838BE290E0FC01108276
:1007000005C010923C0110923B0100000000DF91F7
:10071000CF910895CF93DF93CDB7DEB780913301AA
:10072000909134018130910581F08130910530F054
:100730008230910589F00397B1F01CC081E090E010
:1007400090933401809333011AC082E090E090933B
:1007500034018093330113C083E090E0909334011F
:10076000809333010CC081E090E09093340180933A
:10077000330105C0109234011092330100008091C2
:100780003301909134018230910589F083309105D5
:10079000C9F0019709F021C088E290E020E1FC0156
:1007A00020838BE290E022E0FC01208316C088E2E7
:1007B00090E028E0FC0120838BE290E02AE0FC013D
:1007C00020830BC088E290E024E0FC0120838BE2D0
:1007D00090E028E0FC01208300000000DF91CF9131
:1007E0000895CF93DF93CDB7DEB780914C01909100
:1007F0004D018130910581F08130910530F08230DA
:10080000910589F00397B1F01CC081E090E09093CE
:100810004D0180934C011AC082E090E090934D010D
:1008200080934C0113C083E090E090934D0180933E
:100830004C010CC081E090E090934D0180934C01FD
:1008400005C010924D0110924C01000080914C01A6
:1008500090914D018230910589F083309105C9F066
:10086000019709F020C088E290E020E1FC0120839C
:100870008BE290E02AE0FC01208315C088E290E042
:1008800028E0FC0120838BE290E02AE0FC01208339
:100890000AC088E290E024E0FC0120838BE290E033
:1008A000FC01108200000000DF91CF910895CF93EA
:1008B000DF93CDB7DEB78091490190914A01813035
:1008C000910581F08130910530F08230910589F0F9
:1008D0000397B1F01CC081E090E090934A018093AF
:1008E00049011AC082E090E090934A018093490147
:1008F00013C083E090E090934A01809349010CC0BB
:1009000081E090E090934A018093490105C01092E4
:100910004A011092490100008091490190914A01D9
:100920008230910589F083309105C9F0019709F073
:1009300020C088E290E020E1FC0120838BE290E07F
:1009400028E1FC01208315C088E290E028E0FC014A
:1009500020838BE290E02BE1FC0120830AC088E237
:1009600090E024E0FC0120838BE290E0FC01108207
:1009700000000000DF91CF910895CF93DF93CDB7B2
:10098000DEB780912B0190912C018130910581F08F
:100990008130910530F08230910589F00397B1F0F4
:1009A0001CC081E090E090932C0180932B011AC031
:1009B00082E090E090932C0180932B0113C083E0A0
:1009C00090E090932C0180932B010CC081E090E08B
:1009D00090932C0180932B0105C010922C01109252
:1009E0002B01000080912B0190912C018230910508
:1009F00089F083309105C9F0019709F021C088E2A0
:100A000090E020E1FC0120838BE290E028E0FC01F3
:100A1000208316C088E290E024E0FC0120838BE272
:100A200090E022E0FC0120830BC088E290E028E007
:100A3000FC0120838BE290E02AE0FC01208300008F
:100A40000000DF91CF910895CF93DF93CDB7DEB74C
:100A500080914301909144018130910581F0813072
:100A6000910530F08230910589F00397B1F01CC0F8
:100A700081E090E090934401809343011AC082E0AA
:100A800090E0909344018093430113C083E090E091
:100A900090934401809343010CC081E090E09093D7
:100AA00044018093430105C0109244011092430118
:100AB000000080914301909144018230910581F0C2
:100AC00083309105C1F0019709F020C088E290E0E1
:100AD00020E1FC0120838BE290E0FC01108216C033
:100AE00088E290E028E0FC0120838BE290E02AE09D
:100AF000FC0120830BC088E290E024E0FC0120830D
:100B00008BE290E022E0FC01208300000000DF91F6
:100B1000CF910895CF93DF93CDB7DEB780912D01AC
:100B200090912E018130910569F08130910518F086
:100B3000029779F015C081E090E090932E018093A8
:100B40002D0113C082E090E090932E0180932D013F
:100B50000CC081E090E090932E0180932D0105C0A0
:100B600010922E0110922D01000080912D01909184
:100B70002E018130910519F0029761F015C088E2CD
:100B800090E02CE1FC0120838BE290E02EE1FC015F
:100B900020830AC088E290E024E0FC0120838BE2FD
:100BA00090E0FC01108200000000DF91CF910895D9
:100BB000CF93DF93CDB7DEB7809141019091420191
:100BC0008130910581F08130910530F082309105BE
:100BD00089F00397B1F01CC081E090E0909342014E
:100BE000809341011AC082E090E09093420180938B
:100BF000410113C083E090E0909342018093410152
:100C00000CC081E090E0909342018093410105C0C7
:100C10001092420110924101000080914101909197
:100C200042018230910581F083309105C1F0019736
:100C300009F01FC088E290E020E1FC0120838BE2F4
:100C400090E0FC01108215C088E290E028E0FC01F1
:100C500020838BE290E02AE0FC0120830AC088E236
:100C600090E024E0FC0120838BE290E0FC01108204
:100C700000000000DF91CF910895CF93DF93CDB7AF
:100C8000DEB780913F01909140018130910581F064
:100C90008130910530F08230910589F00397B1F0F1
:100CA0001CC081E090E09093400180933F011AC006
:100CB00082E090E09093400180933F0113C083E075
:100CC00090E09093400180933F010CC081E090E060
:100CD0009093400180933F0105C010924001109213
:100CE0003F01000080913F019091400182309105C9
:100CF00089F083309105C9F0019709F020C088E29E
:100D000090E020E1FC0120838BE290E028E1FC01EF
:100D1000208315C088E290E028E0FC0120838BE26C
:100D200090E02AE1FC0120830AC088E290E024E000
:100D3000FC0120838BE290E0FC01108200000000A7
:100D4000DF91CF910895CF93DF93CDB7DEB7809138
:100D50003D0190913E0182309105E1F08330910593
:100D600028F4009749F0019771F029C0833091056C
:100D7000C1F00497E9F023C081E090E090933E0138
:100D800080933D0121C082E090E090933E018093EA
:100D90003D011AC083E090E090933E0180933D01B5
:100DA00013C084E090E090933E0180933D010CC01D
:100DB00081E090E090933E0180933D0105C0109248
:100DC0003E0110923D01000080913D0190913E0155
:100DD00082309105B1F08330910518F4019739F014
:100DE0002FC083309105B9F0049701F129C088E242
:100DF00090E020E2FC0120838BE290E0FC01108275
:100E00001FC088E290E028E0FC0120838BE290E0A4
:100E1000FC01108215C088E290E024E0FC012083F0
:100E20008BE290E02EE0FC0120830AC088E290E093
:100E300022E0FC0120838BE290E0FC0110820000A4
:100E40000000DF91CF910895CF93DF93CDB7DEB748
:100E500080914701882F90E08830910509F459C0AE
:100E6000893091054CF48230910549F18430910527
:100E7000C9F10197A9F0B1C08032910509F477C09A
:100E80008132910524F4409709F45AC0A6C08034F9
:100E9000910509F482C08038910509F490C09DC085
:100EA00080914601873009F0A1C080914E01909158
:100EB0004F01019690934F0180934E0197C080910E
:100EC0004601873029F0809146018E3009F090C0AC
:100ED00080914E0190914F01019690934F01809324
:100EE0004E0186C080914601873049F080914601CD
:100EF0008E3029F0809146018C3109F07BC08091C1
:100F00004E0190914F01019690934F0180934E01B5
:100F100071C0809146018E3049F0809146018C313C
:100F200029F080914601883309F066C080914E0116
:100F300090914F01019690934F0180934E015CC0B8
:100F4000809146018C3149F080914601883329F027
:100F500080914601803709F051C080914E019091F7
:100F60004F01019690934F0180934E0147C08091AD
:100F70004601883341F080914601803721F080910D
:100F80004601803EE9F580914E0190914F01019616
:100F900090934F0180934E0133C08091460180377A
:100FA00021F080914601803E69F580914E0190913B
:100FB0004F01019690934F0180934E0123C0809181
:100FC0004601803E09F580914E0190914F010196B6
:100FD00090934F0180934E0117C080914E019091E4
:100FE0004F0190934F0180934E010FC000000DC040
:100FF00000000BC0000009C0000007C0000005C0D1
:10100000000003C0000001C000000000DF91CF918C
:101010000895CF93DF93CDB7DEB766970FB6F894F8
:10102000DEBF0FBECDBF81E290E0FC01108282E204
:1010300090E02FE0FC01208387E290E02FEFFC019D
:10104000208388E290E0FC0110828AE290E02FEF9A
:10105000FC0120838BE290E0FC0110828FEE8093F4
:101060003A0180EE8093390181E090E0A0E0B0E0A9
:101070008B8B9C8BAD8BBE8B80E991E0A0E0B0E0C8
:1010800089839A83AB83BC83109238011092370115
:1010900084E690E0A0E0B0E08D839E83AF83B887C4
:1010A000109236011092350119861A861B861C860D
:1010B00080ED97E0A0E0B0E08D879E87AF87B88B8A
:1010C00010924F0110924E011A8A198A8B899C89BD
:1010D000AD89BE89BC01CD010E944B010E949B00DD
:1010E0000E94920283C088E790E0FC018081918198
:1010F000909332018093310189819A81AB81BC81C7
:1011000080399140A105B10550F089899A890E94E2
:1011100079019A8B898B19821A821B821C828D819C
:101120009E81AF81B88584369105A105B10530F067
:101130000E94D7011D821E821F8218860E94A30270
:101140008D859E85AF85B889803D9740A105B10505
:1011500030F00E9424071D861E861F86188A000014
:10116000809124018823E1F31092240129813A819E
:101170004B815C818B899C89AD89BE89820F931FCD
:10118000A41FB51F89839A83AB83BC832D813E81C5
:101190004F8158858B899C89AD89BE89820F931FA9
:1011A000A41FB51F8D839E83AF83B88729853A8599
:1011B0004B855C858B899C89AD89BE89820F931F85
:1011C000A41FB51F89879A87AB87BC872D853E856D
:1011D0004F8558898B899C89AD89BE89820F931F61
:1011E000A41FB51F8D879E87AF87B88B89859A8589
:1011F000AB85BC85813C9D45A105B10508F473CF45
:1012000080914E0190914F01092E000CAA0BBB0B4F
:1012100040E050E02AE030E0841B950B28173907A6
:1012200030F18A5B9F4FFC010C9439090E94F60251
:101230001FC00E945B031CC00E948A0319C00E9449
:10124000F10316C00E94570413C00E94BD0410C0D1
:101250000E9424050DC00E948A050AC00E94D8057C
:1012600007C00E943D0604C00E94A30601C0000002
:1012700039CFEE0FFF1F0024001C0BBE0790F69124
:08128000E02D0994F894FFCF62
:1012880000000002000000007200000000000100E1
:101298000000FE0200000002000000020000000240
:0412A800000000EF53
:00000001FF
