:100000000C9450000C946F000C946F000C946F00D3
:100010000C946F000C946F000C946F000C946F00A4
:100020000C946F000C946F000C946F000C946F0094
:100030000C946F000C94E8000C946F000C946F000B
:100040000C946F000C946F000C946F000C946F0074
:100050000C946F000C946F000C946F000C946F0064
:100060000C946F000C946F000C946F000C946F0054
:100070000C946F000C946F000C946F000C946F0044
:100080000C946F000C946F000C946F00B508B808C6
:10009000BB08BE08C108C408C708CA08CD08D008F4
:1000A00011241FBECFEFD0E4DEBFCDBF11E0A0E032
:1000B000B1E0E0ECF1E100E00BBF02C007900D926F
:1000C000A432B107D9F721E0A4E2B1E001C01D924A
:1000D000AF34B207E1F70E94A6070C94DE080C9437
:1000E0000000CF93DF9300D01F92CDB7DEB7898396
:1000F0007B836A8389818A3031F48A819B81BC0148
:100100008DE00E94710080EC90E0FC018081882FDE
:1001100090E080729927892BB1F386EC90E02981D9
:10012000FC01208380E090E00F900F900F90DF9112
:10013000CF910895CF93DF93CDB7DEB781E890E0FC
:100140002BE0FC01208388E890E02DE730E0FC0103
:10015000318320838FE690E022E0FC01208384E855
:1001600090E0FC011182108280910E0190910F01AC
:10017000A0911001B0911101809325019093260167
:10018000A0932701B09328018FE590E02FE530E0A0
:10019000F90120812068FC0120830000DF91CF91CC
:1001A0000895CF93DF93CDB7DEB781E890E0FC01EF
:1001B00010820000DF91CF910895CF93DF93CDB7E8
:1001C000DEB781E0809324010000DF91CF91089594
:1001D0001F920F9200905F000F92112400905B001D
:1001E0000F922F933F934F935F936F937F938F93D0
:1001F0009F93AF93BF93EF93FF93CF93DF93CDB7CD
:10020000DEB78091250190912601A0912701B09140
:1002100028010197A109B109809325019093260136
:10022000A0932701B0932801809125019091260188
:10023000A0912701B0912801892B8A2B8B2B91F457
:100240000E94DD0080910E0190910F01A09110019C
:10025000B09111018093250190932601A09327016D
:10026000B09328010000DF91CF91FF91EF91BF91F2
:10027000AF919F918F917F916F915F914F913F913E
:100280002F910F9000925B000F9000925F000F90F3
:100290001F901895CF93DF9300D000D0CDB7DEB775
:1002A00069837A838B839C8389819A81AB81BC81AA
:1002B00080930E0190930F01A0931001B093110150
:1002C00080910E0190910F01A0911001B091110148
:1002D0008093250190932601A0932701B0932801D4
:1002E00000000F900F900F900F90DF91CF91089525
:1002F000CF93DF9300D0CDB7DEB79A83898389810E
:100300009A81892B19F01A82198201C00000898113
:100310009A81892B09F02CC0809112018F3E81F0C7
:100320008091120180958093120180911201880FB3
:10033000809312018091120180958093120117C061
:100340008EEF809312018091290190912A010397E9
:1003500054F48091290190912A01019690932A01E9
:100360008093290104C010922A01109229010000F3
:100370008091290190912A01880F991F880F991F58
:100380008D5E9E4FFC0180819181A281B38180931B
:100390004501809112018093490189819A810F90D2
:1003A0000F90DF91CF910895CF93DF93CDB7DEB754
:1003B000809135019091360181309105A1F0813015
:1003C000910540F08230910509F446C0039709F485
:1003D0004AC050C081E090E090933601809335018F
:1003E000109243014FC080912F01909130018130D4
:1003F000924080F080912F01909130018835924099
:1004000048F41092430181E090E09093360180938C
:10041000350137C080912F0190913001893592408C
:1004200050F082E090E0909336018093350183E0B4
:100430008093430126C080912F0190913001811556
:100440009240F8F483E090E0909336018093350178
:1004500084E08093430115C081E090E090933601E1
:10046000809335010FC081E090E090933601809336
:10047000350108C081E090E090933601809335010A
:1004800001C00000809135019091360182309105C4
:1004900019F00397D9F037C080913701873041F4C4
:1004A00080914301833021F487E08093370128C095
:1004B00080913701873021F180914301833001F52C
:1004C000809137018695809337011AC0809137015A
:1004D000803E41F480914301843021F480EE80938A
:1004E000370110C080913701803E61F08091430157
:1004F000843041F480913701880F8093370102C026
:10050000000001C000008091370180934401809178
:100510003801809346010000DF91CF910895CF9379
:10052000DF93CDB7DEB78AE790E02AE730E0F90144
:100530002081206EFC0120830000DF91CF9108957F
:10054000CF93DF93CDB7DEB7809133019091340123
:100550008130910569F08130910518F0029779F0AA
:1005600015C081E090E0909334018093330113C073
:1005700082E090E090933401809333010CC081E0DD
:1005800090E0909334018093330105C010923401C0
:100590001092330100008091330190913401813039
:1005A000910519F0029771F01AC088E290E020914D
:1005B0004501FC0120838BE290E020914901FC0180
:1005C00020830DC088E290E020914401FC0120834B
:1005D0008BE290E020914601FC01208300000000A6
:1005E000DF91CF910895CF93DF93CDB7DEB78091A0
:1005F000390190913A01892B39F481E090E0909390
:100600003A018093390105C010923A0110923901E4
:1006100000008091390190913A01019751F488E2EC
:1006200090E028E0FC0120838BE290E0FC01108246
:1006300005C010923A011092390100000000DF91CC
:10064000CF910895CF93DF93CDB7DEB7809131017D
:10065000909132018130910581F08130910530F027
:100660008230910589F00397B1F01CC081E090E0E1
:1006700090933201809331011AC082E090E0909310
:1006800032018093310113C083E090E090933201F6
:10069000809331010CC081E090E09093320180930F
:1006A000310105C010923201109231010000809199
:1006B0003101909132018230910589F083309105AA
:1006C000C9F0019709F021C088E290E020E1FC0127
:1006D00020838BE290E022E0FC01208316C088E2B8
:1006E00090E028E0FC0120838BE290E02AE0FC010E
:1006F00020830BC088E290E024E0FC0120838BE2A1
:1007000090E028E0FC01208300000000DF91CF9101
:100710000895CF93DF93CDB7DEB780914A019091D2
:100720004B018130910581F08130910530F08230AC
:10073000910589F00397B1F01CC081E090E090939F
:100740004B0180934A011AC082E090E090934B01E4
:1007500080934A0113C083E090E090934B01809313
:100760004A010CC081E090E090934B0180934A01D4
:1007700005C010924B0110924A01000080914A017D
:1007800090914B018230910589F083309105C9F039
:10079000019709F020C088E290E020E1FC0120836D
:1007A0008BE290E02AE0FC01208315C088E290E013
:1007B00028E0FC0120838BE290E02AE0FC0120830A
:1007C0000AC088E290E024E0FC0120838BE290E004
:1007D000FC01108200000000DF91CF910895CF93BB
:1007E000DF93CDB7DEB7809147019091480181300A
:1007F000910581F08130910530F08230910589F0CA
:100800000397B1F01CC081E090E090934801809381
:1008100047011AC082E090E090934801809347011D
:1008200013C083E090E090934801809347010CC08F
:1008300081E090E0909348018093470105C01092B9
:1008400048011092470100008091470190914801B2
:100850008230910589F083309105C9F0019709F044
:1008600020C088E290E020E1FC0120838BE290E050
:1008700028E1FC01208315C088E290E028E0FC011B
:1008800020838BE290E02BE1FC0120830AC088E208
:1008900090E024E0FC0120838BE290E0FC011082D8
:1008A00000000000DF91CF910895CF93DF93CDB783
:1008B000DEB780912B0190912C018130910581F060
:1008C0008130910530F08230910589F00397B1F0C5
:1008D0001CC081E090E090932C0180932B011AC002
:1008E00082E090E090932C0180932B0113C083E071
:1008F00090E090932C0180932B010CC081E090E05C
:1009000090932C0180932B0105C010922C01109222
:100910002B01000080912B0190912C0182309105D8
:1009200089F083309105C9F0019709F021C088E270
:1009300090E020E1FC0120838BE290E028E0FC01C4
:10094000208316C088E290E024E0FC0120838BE243
:1009500090E022E0FC0120830BC088E290E028E0D8
:10096000FC0120838BE290E02AE0FC012083000060
:100970000000DF91CF910895CF93DF93CDB7DEB71D
:1009800080914101909142018130910581F0813047
:10099000910530F08230910589F00397B1F01CC0C9
:1009A00081E090E090934201809341011AC082E07F
:1009B00090E0909342018093410113C083E090E066
:1009C00090934201809341010CC081E090E09093AC
:1009D00042018093410105C01092420110924101F1
:1009E000000080914101909142018230910581F097
:1009F00083309105C1F0019709F020C088E290E0B2
:100A000020E1FC0120838BE290E0FC01108216C003
:100A100088E290E028E0FC0120838BE290E02AE06D
:100A2000FC0120830BC088E290E024E0FC012083DD
:100A30008BE290E022E0FC01208300000000DF91C7
:100A4000CF910895CF93DF93CDB7DEB780912D017D
:100A500090912E018130910569F08130910518F057
:100A6000029779F015C081E090E090932E01809379
:100A70002D0113C082E090E090932E0180932D0110
:100A80000CC081E090E090932E0180932D0105C071
:100A900010922E0110922D01000080912D01909155
:100AA0002E018130910519F0029761F015C088E29E
:100AB00090E02CE1FC0120838BE290E02EE1FC0130
:100AC00020830AC088E290E024E0FC0120838BE2CE
:100AD00090E0FC01108200000000DF91CF910895AA
:100AE000CF93DF93CDB7DEB780913F019091400166
:100AF0008130910581F08130910530F0823091058F
:100B000089F00397B1F01CC081E090E09093400120
:100B100080933F011AC082E090E09093400180935F
:100B20003F0113C083E090E09093400180933F0128
:100B30000CC081E090E09093400180933F0105C09C
:100B40001092400110923F01000080913F0190916E
:100B500040018230910581F083309105C1F0019709
:100B600009F01FC088E290E020E1FC0120838BE2C5
:100B700090E0FC01108215C088E290E028E0FC01C2
:100B800020838BE290E02AE0FC0120830AC088E207
:100B900090E024E0FC0120838BE290E0FC011082D5
:100BA00000000000DF91CF910895CF93DF93CDB780
:100BB000DEB780913D0190913E018130910581F039
:100BC0008130910530F08230910589F00397B1F0C2
:100BD0001CC081E090E090933E0180933D011AC0DB
:100BE00082E090E090933E0180933D0113C083E04A
:100BF00090E090933E0180933D010CC081E090E035
:100C000090933E0180933D0105C010923E011092E9
:100C10003D01000080913D0190913E01823091059F
:100C200089F083309105C9F0019709F020C088E26E
:100C300090E020E1FC0120838BE290E028E1FC01C0
:100C4000208315C088E290E028E0FC0120838BE23D
:100C500090E02AE1FC0120830AC088E290E024E0D1
:100C6000FC0120838BE290E0FC0110820000000078
:100C7000DF91CF910895CF93DF93CDB7DEB7809109
:100C80003B0190913C0182309105E1F08330910568
:100C900028F4009749F0019771F029C0833091053D
:100CA000C1F00497E9F023C081E090E090933C010B
:100CB00080933B0121C082E090E090933C018093BF
:100CC0003B011AC083E090E090933C0180933B018C
:100CD00013C084E090E090933C0180933B010CC0F2
:100CE00081E090E090933C0180933B0105C010921D
:100CF0003C0110923B01000080913B0190913C012E
:100D000082309105B1F08330910518F4019739F0E4
:100D10002FC083309105B9F0049701F129C088E212
:100D200090E020E2FC0120838BE290E0FC01108245
:100D30001FC088E290E028E0FC0120838BE290E075
:100D4000FC01108215C088E290E024E0FC012083C1
:100D50008BE290E02EE0FC0120830AC088E290E064
:100D600022E0FC0120838BE290E0FC011082000075
:100D70000000DF91CF910895CF93DF93CDB7DEB719
:100D800080914501882F90E08830910509F459C081
:100D9000893091054CF48230910549F184309105F8
:100DA000C9F10197A9F0B6C08032910509F477C066
:100DB0008132910524F4409709F45AC0ABC08034C5
:100DC000910509F483C08038910509F495C0A2C04B
:100DD00080914401873009F0A6C080914C01909128
:100DE0004D01019690934D0180934C019CC08091E0
:100DF0004401873029F0809144018E3009F095C07C
:100E000080914C0190914D01019690934D018093FA
:100E10004C018BC080914401873049F0809144019E
:100E20008E3029F0809144018C3109F080C080918E
:100E30004C0190914D01019690934D0180934C018E
:100E400076C080914401873049F0809144018E3012
:100E500029F080914401883309F06BC080914C01E6
:100E600090914D01019690934D0180934C0161C08A
:100E7000809144018E3049F080914401883329F0FB
:100E800080914401803709F056C080914C019091C7
:100E90004D01019690934D0180934C014CC080917F
:100EA0004401883349F080914401803729F08091D2
:100EB0004401803E09F041C080914C0190914D0168
:100EC000019690934D0180934C0137C0809144016D
:100ED000883341F080914401803721F080914401B2
:100EE000803E69F580914C0190914D01019690935F
:100EF0004D0180934C0123C080914401803E09F54F
:100F000080914C0190914D01019690934D018093F9
:100F10004C0117C080914C0190914D0190934D016F
:100F200080934C010FC000000DC000000BC00000FA
:100F300009C0000007C0000005C0000003C0000099
:100F400001C000000000DF91CF910895CF93DF939F
:100F5000CDB7DEB766970FB6F894DEBF0FBECDBF34
:100F600081E290E0FC01108282E290E02FE0FC013F
:100F7000208387E290E02FEFFC01208388E290E05D
:100F8000FC0110828AE290E02FEFFC0120838BE2CB
:100F900090E0FC0110828FEE8093380180EE809308
:100FA000370181E090E0A0E0B0E08B8B9C8BAD8BB3
:100FB000BE8B80E991E0A0E0B0E089839A83AB83A7
:100FC000BC83109236011092350184E690E0A0E0D7
:100FD000B0E08D839E83AF83B88710923401109266
:100FE000330119861A861B861C8680E699E0A0E0EC
:100FF000B0E08D879E87AF87B88B81E090E09093BB
:101000004D0180934C011A8A198A8B899C89AD897C
:10101000BE89BC01CD010E944A010E949A000E9433
:101020008F0283C088E790E0FC01808191819093DA
:10103000300180932F0189819A81AB81BC818039F5
:101040009140A105B10550F089899A890E947801E3
:101050009A8B898B19821A821B821C828D819E81B8
:10106000AF81B88584369105A105B10530F00E94A5
:10107000D4011D821E821F8218860E94A0028D85C7
:101080009E85AF85B88980369940A105B10530F0BD
:101090000E94BC061D861E861F86188A000080914D
:1010A00024018823E1F31092240129813A814B81A4
:1010B0005C818B899C89AD89BE89820F931FA41F97
:1010C000B51F89839A83AB83BC832D813E814F8179
:1010D00058858B899C89AD89BE89820F931FA41F77
:1010E000B51F8D839E83AF83B88729853A854B854D
:1010F0005C858B899C89AD89BE89820F931FA41F53
:10110000B51F89879A87AB87BC872D853E854F851C
:1011100058898B899C89AD89BE89820F931FA41F32
:10112000B51F8D879E87AF87B88B89859A85AB85DC
:10113000BC8581399C44A105B10508F473CF809129
:101140004C0190914D01092E000CAA0BBB0B41E004
:1011500050E029E030E0841B950B2817390718F17F
:101160008A5B9F4FFC010C94D5080E94F3021CC0BF
:101170000E94220319C00E94890316C00E94EF0337
:1011800013C00E94550410C00E94BC040DC00E94F0
:1011900022050AC00E94700507C00E94D50504C040
:1011A0000E943B0601C000003CCFEE0FFF1F002451
:1011B000001C0BBE0790F691E02D0994F894FFCF28
:1011C00000000002000000007100000000000100AB
:1011D0000000FE020000008000000001000000107E
:0411E000000000EF1C
:00000001FF
