:100000000C9446000C9465000C9465000C946500FB
:100010000C9465000C9465000C9465000C946500CC
:100020000C9465000C9465000C9465000C946500BC
:100030000C9465000C94DE000C9465000C94650033
:100040000C9465000C9465000C9465000C9465009C
:100050000C9465000C9465000C9465000C9465008C
:100060000C9465000C9465000C9465000C9465007C
:100070000C9465000C9465000C9465000C9465006C
:100080000C9465000C9465000C94650011241FBE4F
:10009000CFEFD0E4DEBFCDBF11E0A0E0B1E0E6ECF1
:1000A000F5E000E00BBF02C007900D92A032B1074F
:1000B000D9F721E0A0E2B1E001C01D92AF32B20752
:1000C000E1F70E9492020C94E1020C940000CF939D
:1000D000DF9300D01F92CDB7DEB789837B836A831D
:1000E00089818A3031F48A819B81BC018DE00E9434
:1000F000670080EC90E0FC018081882F90E08072A6
:100100009927892BB1F386EC90E02981FC012083AB
:1001100080E090E00F900F900F90DF91CF910895C5
:10012000CF93DF93CDB7DEB781E890E02BE0FC0101
:10013000208388E890E02DE730E0FC0131832083C4
:100140008FE690E022E0FC01208384E890E0FC014F
:100150001182108280910E0190910F01A0911001E7
:10016000B09111018093210190932201A09323016A
:10017000B09324018FE590E02FE530E0F901208174
:100180002068FC0120830000DF91CF910895CF9378
:10019000DF93CDB7DEB781E890E0FC01108200006C
:1001A000DF91CF910895CF93DF93CDB7DEB781E094
:1001B000809320010000DF91CF9108951F920F924C
:1001C00000905F000F92112400905B000F922F931C
:1001D0003F934F935F936F937F938F939F93AF93CF
:1001E000BF93EF93FF93CF93DF93CDB7DEB78091AB
:1001F000210190912201A0912301B0912401019746
:10020000A109B1098093210190932201A0932301B8
:10021000B09324018091210190912201A0912301AA
:10022000B0912401892B8A2B8B2B91F40E94D3004F
:1002300080910E0190910F01A0911001B0911101D8
:100240008093210190932201A0932301B093240174
:100250000000DF91CF91FF91EF91BF91AF919F91FE
:100260008F917F916F915F914F913F912F910F905F
:1002700000925B000F9000925F000F901F90189506
:10028000CF93DF9300D000D0CDB7DEB769837A83F8
:100290008B839C8389819A81AB81BC8180930E0181
:1002A00090930F01A0931001B093110180910E0162
:1002B00090910F01A0911001B09111018093210143
:1002C00090932201A0932301B093240100000F908A
:1002D0000F900F900F90DF91CF910895CF93DF9300
:1002E00000D0CDB7DEB79A83898389819A81892B23
:1002F00019F01A82198201C0000089819A81892B24
:1003000009F02CC0809112018F3E81F08091120182
:1003100080958093120180911201880F80931201C1
:100320008091120180958093120117C08EEF809307
:1003300012018091250190912601039754F4809138
:100340002501909126010196909326018093250125
:1003500004C01092260110922501000028E230E02E
:100360008091250190912601880F991F880F991F70
:100370008D5E9E4FFC0180819181A281B381F90144
:1003800080838BE290E020911201FC01208389811F
:100390009A810F900F90DF91CF910895CF93DF93C3
:1003A000CDB7DEB78091290190912A018130910566
:1003B000A1F08130910540F08230910509F446C0EA
:1003C000039709F44AC050C081E090E090932A015D
:1003D0008093290110922D014FC0809127019091A7
:1003E00028018130924080F080912701909128016E
:1003F0008835924048F410922D0181E090E090936E
:100400002A018093290137C080912701909128010A
:100410008935924050F082E090E090932A018093D9
:10042000290183E080932D0126C0809127019091BE
:10043000280181159240F8F483E090E090932A011E
:100440008093290184E080932D0115C081E090E024
:1004500090932A01809329010FC081E090E090934E
:100460002A018093290108C081E090E090932A013D
:100470008093290101C000008091290190912A01F7
:100480008230910519F00397D9F037C080912B0184
:10049000813041F480912D01833021F480E88093F4
:1004A0002B0128C080912B01813021F180912D01F9
:1004B000833001F580912B01869580932B011AC022
:1004C00080912B01803841F480912D01843021F4FA
:1004D00081E080932B0110C080912B01803861F066
:1004E00080912D01843041F480912B01880F8093FD
:1004F0002B0102C0000001C000000000DF91CF917D
:100500000895CF93DF93CDB7DEB78AE790E02AE76F
:1005100030E0F9012081206EFC0120830000DF9192
:10052000CF910895CF93DF9300D0CDB7DEB787E2A8
:1005300090E02FEFFC01208388E290E0FC01108224
:100540008AE290E02FEFFC0120838BE290E0FC0137
:10055000108281E290E0FC01108282E290E02FE0C4
:10056000FC0120838EEF80932C0180E880932B0187
:1005700010922A01109229011A8219826EEE72E0FD
:1005800080E090E00E9440010E9490000E94810261
:1005900088E790E0FC01808191819093280180930D
:1005A000270189819A810E946E019A8389830E9422
:1005B000CE010000809120018823E1F310922001F8
:0605C000E7CFF894FFCF25
:1005C60000000002000000006700000000000100BB
:1005D6000000FE0200000080000000010000000094
:00000001FF
