:100000000C9446000C9465000C9465000C946500FB
:100010000C9465000C9465000C9465000C946500CC
:100020000C9465000C9465000C9465000C946500BC
:100030000C9465000C94DE000C9465000C94650033
:100040000C9465000C9465000C9465000C9465009C
:100050000C9465000C9465000C9465000C9465008C
:100060000C9465000C9465000C9465000C9465007C
:100070000C9465000C9465000C9465000C9465006C
:100080000C9465000C9465000C94650011241FBE4F
:10009000CFEFD0E4DEBFCDBF11E0A0E0B1E0E4ECF3
:1000A000F5E000E00BBF02C007900D92A431B1074C
:1000B000D9F721E0A4E1B1E001C01D92A132B2075D
:1000C000E1F70E9491020C94E0020C940000CF939F
:1000D000DF9300D01F92CDB7DEB789837B836A831D
:1000E00089818A3031F48A819B81BC018DE00E9434
:1000F000670080EC90E0FC018081882F90E08072A6
:100100009927892BB1F386EC90E02981FC012083AB
:1001100080E090E00F900F900F90DF91CF910895C5
:10012000CF93DF93CDB7DEB781E890E02BE0FC0101
:10013000208388E890E02DE730E0FC0131832083C4
:100140008FE690E022E0FC01208384E890E0FC014F
:100150001182108280910E0190910F01A0911001E7
:10016000B09111018093150190931601A09317018E
:10017000B09318018FE590E02FE530E0F901208180
:100180002068FC0120830000DF91CF910895CF9378
:10019000DF93CDB7DEB781E890E0FC01108200006C
:1001A000DF91CF910895CF93DF93CDB7DEB781E094
:1001B000809314010000DF91CF9108951F920F9258
:1001C00000905F000F92112400905B000F922F931C
:1001D0003F934F935F936F937F938F939F93AF93CF
:1001E000BF93EF93FF93CF93DF93CDB7DEB78091AB
:1001F000150190911601A0911701B0911801019776
:10020000A109B1098093150190931601A0931701DC
:10021000B09318018091150190911601A0911701DA
:10022000B0911801892B8A2B8B2B91F40E94D3005B
:1002300080910E0190910F01A0911001B0911101D8
:100240008093150190931601A0931701B0931801A4
:100250000000DF91CF91FF91EF91BF91AF919F91FE
:100260008F917F916F915F914F913F912F910F905F
:1002700000925B000F9000925F000F901F90189506
:10028000CF93DF9300D000D0CDB7DEB769837A83F8
:100290008B839C8389819A81AB81BC8180930E0181
:1002A00090930F01A0931001B093110180910E0162
:1002B00090910F01A0911001B0911101809315014F
:1002C00090931601A0931701B093180100000F90AE
:1002D0000F900F900F90DF91CF910895CF93DF9300
:1002E00000D0CDB7DEB79A83898389819A81892B23
:1002F00019F01A82198201C0000089819A81892B24
:1003000009F033C080911201813041F480911D01C8
:10031000833021F480E88093120126C0809112017D
:10032000813049F080911D01833029F480911B01B7
:100330008093120119C080911201803841F480919C
:100340001D01843021F481E0809312010DC0809161
:100350001201803849F080911D01843029F4809188
:100360001B018093120100C0000088E290E0209100
:100370001201FC0120838BE290E020911301FC012B
:10038000208389819A810F900F90DF91CF910895FA
:10039000CF93DF93CDB7DEB780911E0190911F01FF
:1003A00081309105A1F08130910540F084309105B4
:1003B00009F446C0059709F44AC050C081E090E0B6
:1003C00090931F0180931E0110921D014FC08091D8
:1003D000190190911A018130924080F080911901A9
:1003E00090911A018835924048F410921D0181E0E5
:1003F00090E090931F0180931E0137C080911901F6
:1004000090911A018130924050F084E090E09093F6
:100410001F0180931E0183E080931D0126C08091FF
:10042000190190911A0181159240F8F485E090E04D
:1004300090931F0180931E0184E080931D0115C0DD
:1004400081E090E090931F0180931E010FC081E036
:1004500090E090931F0180931E0108C081E090E01E
:1004600090931F0180931E0101C0000080911E0126
:1004700090911F018430910531F085309105E9F0AC
:100480000197A9F139C080911B01813041F480911D
:100490001D01833021F480E880931B012AC08091E4
:1004A0001B01813031F180911D01833011F5809164
:1004B0001B01869580931B011CC080911B01803815
:1004C00041F480911D01843021F481E080931B016F
:1004D00012C080911B01803871F080911D01843021
:1004E00051F480911B01880F80931B0104C0000010
:1004F00003C0000001C000000000DF91CF9108950B
:10050000CF93DF93CDB7DEB78AE790E02AE730E0FC
:10051000F9012081206EFC0120830000DF91CF9142
:100520000895CF93DF9300D0CDB7DEB787E290E098
:100530002FEFFC01208388E290E0FC0110828AE228
:1005400090E02FEFFC0120838BE290E0FC01108211
:1005500081E290E0FC01108282E290E02FE0FC0159
:1005600020838EEF80931C0180E880931B01109202
:100570001F0110921E011A82198264E670E080E069
:1005800090E00E9440010E9490000E94800288E753
:1005900090E0FC018081918190931A018093190170
:1005A0000E94C80189819A810E946E019A83898381
:1005B0000000809114018823E1F310921401E7CF29
:0405C000F894FFCFDD
:1005C40000000002000000006700000000000100BD
:0405D400000080FEA5
:00000001FF
