:100000000C9446000C9465000C9465000C946500FB
:100010000C9465000C9465000C9465000C946500CC
:100020000C9465000C9465000C9465000C946500BC
:100030000C9465000C9476010C9465000C9465009A
:100040000C9465000C9465000C9465000C9465009C
:100050000C9465000C9465000C9465000C9465008C
:100060000C9465000C9465000C9465000C9465007C
:100070000C9465000C9465000C9465000C9465006C
:100080000C9465000C9465000C94650011241FBE4F
:10009000CFEFD0E4DEBFCDBF11E0A0E0B1E0EEE5F0
:1000A000F2E100E00BBF02C007900D92AA33B10746
:1000B000D9F721E0AAE3B1E001C01D92AF38B20741
:1000C000E1F70E9445060C942D090C940000CF9393
:1000D000DF9300D01F92CDB7DEB789837B836A831D
:1000E00089818A3031F48A819B81BC018DE00E9434
:1000F000670080EC90E0FC018081882F90E08072A6
:100100009927892BB1F386EC90E02981FC012083AB
:1001100080E090E00F900F900F90DF91CF910895C5
:10012000CF93DF93CDB7DEB781E890E02BE0FC0101
:10013000208388E890E02DE730E0FC0131832083C4
:100140008FE690E022E0FC01208384E890E0FC014F
:100150001182108280910E0190910F01A0911001E7
:10016000B091110180933B0190933C01A0933D011C
:10017000B0933E018FE590E02FE530E0F90120815A
:100180002068FC0120830000DF91CF910895CF9378
:10019000DF93CDB7DEB781E890E0FC01108200006C
:1001A000DF91CF9108950F931F93CF93DF931F9209
:1001B000CDB7DEB719828EC08981282F30E04BE0A1
:1001C000429FC001439F900D1124825B9E4FFC0112
:1001D00020813181428153818981682F70E0EBE079
:1001E000E69FC001E79F900D1124865B9E4FFC01A6
:1001F00080819181A281B381281739074A075B0763
:10020000F0F18981082F10E08981282F30E04BE040
:10021000429FC001439F900D11248E5A9E4FFC01B6
:10022000208131818981482F50E06BE0649FC001BB
:10023000659F900D1124875B9E4FFC018081082EE5
:10024000000C990BF9010995382F2BE0209FC00174
:10025000219F900D1124875B9E4FFC013083898183
:10026000282F30E04BE0429FC001439F900D1124A6
:10027000825B9E4FFC01108211821282138289815F
:10028000682F70E08981282F30E04BE0429FC00149
:10029000439F900D1124825B9E4FFC0180819181D0
:1002A000A281B38121E030E040E050E0820F931F53
:1002B000A41FB51F4BE0469F9001479F300D1124AE
:1002C000225B3E4FF90180839183A283B3838981AE
:1002D0008F5F898384E09981981708F46DCF0000BF
:1002E0000F90DF91CF911F910F9108951F920F9260
:1002F00000905F000F92112400905B000F922F93EB
:100300003F934F935F936F937F938F939F93AF939D
:10031000BF93EF93FF93CF93DF93CDB7DEB7809179
:100320003B0190913C01A0913D01B0913E010197AC
:10033000A109B10980933B0190933C01A0933D0139
:10034000B0933E0180913B0190913C01A0913D0111
:10035000B0913E01892B8A2B8B2B91F40E94D30004
:1003600080910E0190910F01A0911001B0911101A7
:1003700080933B0190933C01A0933D01B0933E01DB
:100380000000DF91CF91FF91EF91BF91AF919F91CD
:100390008F917F916F915F914F913F912F910F902E
:1003A00000925B000F9000925F000F901F901895D5
:1003B000CF93DF9300D000D0CDB7DEB769837A83C7
:1003C0008B839C8389819A81AB81BC8180930E0150
:1003D00090930F01A0931001B093110180910E0131
:1003E00090910F01A0911001B091110180933B01F8
:1003F00090933C01A0933D01B0933E0100000F900B
:100400000F900F900F90DF91CF910895CF93DF93CE
:10041000CDB7DEB78AE790E02AE730E0F901208126
:10042000206EFC0120830000DF91CF910895CF93CF
:10043000DF93CDB7DEB780914501909146018130C1
:10044000910581F08130910530F08230910589F07D
:100450000397B1F01CC081E090E090934601809337
:1004600045011AC082E090E09093460180934501D7
:1004700013C083E090E090934601809345010CC047
:1004800081E090E0909346018093450105C0109271
:10049000460110924501000080914501909146016E
:1004A0008230910581F083309105C1F0019709F008
:1004B0001FC088E290E020E2FC0120838BE290E004
:1004C000FC01108215C088E290E020E1FC0120834D
:1004D0008BE290E02EE0FC0120830AC088E290E0ED
:1004E00028E0FC0120838BE290E0FC0110820000F8
:1004F0000000DF91CF910895CF93DF93CDB7DEB7A2
:100500008091790190917A01892B39F481E090E012
:1005100090937A018093790105C010927A0110922C
:10052000790100008091790190917A01019751F44D
:1005300088E290E028E0FC0120838BE290E0FC015F
:10054000108205C010927A0110927901000000001B
:10055000DF91CF910895CF93DF93CDB7DEB7809130
:100560007501909176018130910581F0813091057E
:1005700030F08230910589F00397B1F01CC081E022
:1005800090E090937601809375011AC082E090E02C
:10059000909376018093750113C083E090E090936F
:1005A0007601809375010CC081E090E09093760114
:1005B0008093750105C010927601109275010000BC
:1005C00080917501909176018230910589F0833098
:1005D0009105C9F0019709F021C088E290E020E17F
:1005E000FC0120838BE290E022E0FC01208316C016
:1005F00088E290E028E0FC0120838BE290E02AE092
:10060000FC0120830BC088E290E024E0FC01208301
:100610008BE290E028E0FC01208300000000DF91E5
:10062000CF910895CF93DF93CDB7DEB780918A0144
:1006300090918B018130910581F08130910530F0EE
:100640008230910589F00397B1F01CC081E090E001
:1006500090938B0180938A011AC082E090E090937E
:100660008B0180938A0113C083E090E090938B010B
:1006700080938A010CC081E090E090938B0180937D
:100680008A0105C010928B0110928A0100008091AE
:100690008A0190918B018230910589F08330910518
:1006A000C9F0019709F020C088E290E020E1FC0148
:1006B00020838BE290E02AE0FC01208315C088E2D1
:1006C00090E028E0FC0120838BE290E02AE0FC012E
:1006D00020830AC088E290E024E0FC0120838BE2C2
:1006E00090E0FC01108200000000DF91CF9108959E
:1006F000CF93DF93CDB7DEB78091870190918801CA
:100700008130910581F08130910530F08230910582
:1007100089F00397B1F01CC081E090E090938801CC
:10072000809387011AC082E090E0909388018093C3
:10073000870113C083E090E0909388018093870144
:100740000CC081E090E0909388018093870105C000
:10075000109288011092870100008091870190918A
:1007600088018230910589F083309105C9F00197A5
:1007700009F020C088E290E020E1FC0120838BE2B8
:1007800090E028E1FC01208315C088E290E028E099
:10079000FC0120838BE290E02BE1FC0120830AC066
:1007A00088E290E024E0FC0120838BE290E0FC01F1
:1007B000108200000000DF91CF910895CF93DF9366
:1007C000CDB7DEB780914101909142018130910512
:1007D00081F08130910530F08230910589F00397E6
:1007E000B1F01CC081E090E0909342018093410100
:1007F0001AC082E090E0909342018093410113C0BF
:1008000083E090E090934201809341010CC081E02D
:1008100090E0909342018093410105C01092420103
:10082000109241010000809141019091420182307B
:10083000910589F083309105C9F0019709F021C035
:1008400088E290E020E1FC0120838BE290E028E048
:10085000FC01208316C088E290E024E0FC012083A4
:100860008BE290E022E0FC0120830BC088E290E064
:1008700028E0FC0120838BE290E02AE0FC01208349
:1008800000000000DF91CF910895CF93DF93CDB7A3
:10089000DEB780918101909182018130910581F0D4
:1008A0008130910530F08230910589F00397B1F0E5
:1008B0001CC081E090E090938201809381011AC076
:1008C00082E090E0909382018093810113C083E0E5
:1008D00090E090938201809381010CC081E090E0D0
:1008E000909382018093810105C010928201109241
:1008F00081010000809181019091820182309105F7
:1009000081F083309105C1F0019709F020C088E2A1
:1009100090E020E1FC0120838BE290E0FC0110825A
:1009200016C088E290E028E0FC0120838BE290E092
:100930002AE0FC0120830BC088E290E024E0FC0167
:1009400020838BE290E022E0FC0120830000000085
:10095000DF91CF910895CF93DF93CDB7DEB780912C
:100960004301909144018130910569F081309105F6
:1009700018F0029779F015C081E090E0909344015F
:100980008093430113C082E090E0909344018093F0
:1009900043010CC081E090E09093440180934301B7
:1009A00005C0109244011092430100008091430160
:1009B000909144018130910519F0029761F015C0C2
:1009C00088E290E02CE1FC0120838BE290E02EE1B4
:1009D000FC0120830AC088E290E024E0FC0120832F
:1009E0008BE290E0FC01108200000000DF91CF91CB
:1009F0000895CF93DF93CDB7DEB780917F019091BB
:100A000080018130910581F08130910530F0823094
:100A1000910589F00397B1F01CC081E090E09093BC
:100A2000800180937F011AC082E090E09093800162
:100A300080937F0113C083E090E0909380018093C6
:100A40007F010CC081E090E09093800180937F0152
:100A500005C01092800110927F01000080917F01FB
:100A6000909180018230910581F083309105C1F031
:100A7000019709F01FC088E290E020E1FC0120838B
:100A80008BE290E0FC01108215C088E290E028E043
:100A9000FC0120838BE290E02AE0FC0120830AC065
:100AA00088E290E024E0FC0120838BE290E0FC01EE
:100AB000108200000000DF91CF910895CF93DF9363
:100AC000CDB7DEB780917D0190917E018130910597
:100AD00081F08130910530F08230910589F00397E3
:100AE000B1F01CC081E090E090937E0180937D0185
:100AF0001AC082E090E090937E0180937D0113C044
:100B000083E090E090937E0180937D010CC081E0B2
:100B100090E090937E0180937D0105C010927E014C
:100B200010927D01000080917D0190917E018230C4
:100B3000910589F083309105C9F0019709F020C033
:100B400088E290E020E1FC0120838BE290E028E144
:100B5000FC01208315C088E290E028E0FC0120839E
:100B60008BE290E02AE1FC0120830AC088E290E059
:100B700024E0FC0120838BE290E0FC011082000065
:100B80000000DF91CF910895CF93DF93CDB7DEB70B
:100B900080917B0190917C0182309105E1F083305E
:100BA000910528F4009749F0019771F029C083302E
:100BB0009105C1F00497E9F023C081E090E09093A3
:100BC0007C0180937B0121C082E090E090937C01C6
:100BD00080937B011AC083E090E090937C01809326
:100BE0007B0113C084E090E090937C0180937B01B3
:100BF0000CC081E090E090937C0180937B0105C064
:100C000010927C0110927B01000080917B019091F9
:100C10007C0182309105B1F08330910518F4019781
:100C200039F02FC083309105B9F0049701F129C044
:100C300088E290E020E2FC0120838BE290E0FC015E
:100C400010821FC088E290E028E0FC0120838BE244
:100C500090E0FC01108215C088E290E024E0FC01E5
:100C600020838BE290E02EE0FC0120830AC088E222
:100C700090E022E0FC0120838BE290E0FC011082F6
:100C800000000000DF91CF910895CF93DF93CDB79F
:100C9000DEB781E290E0FC01108282E290E02FE07A
:100CA000FC01208387E290E02FEFFC01208388E2A3
:100CB00090E0FC0110828AE290E02FEFFC0120839B
:100CC0008BE290E0FC0110821092490180E991E0F2
:100CD000A0E0B0E080934A0190934B01A0934C01B7
:100CE000B0934D0180914A0190914B01A0914C012C
:100CF000B0914D0180934E0190934F01A09350010C
:100D0000B093510181E097E0909353018093520199
:100D100081E08093540184E690E0A0E0B0E080930D
:100D2000550190935601A0935701B09358018091BB
:100D3000550190915601A0915701B09158018093AF
:100D4000590190935A01A0935B01B0935C018FE528
:100D500097E090935E0180935D0110925F0180EDBA
:100D600097E0A0E0B0E08093600190936101A093D0
:100D70006201B09363018091600190916101A09143
:100D80006201B09163018093640190936501A09327
:100D90006601B093670181E098E0909369018093C8
:100DA000680181E080936A0181E090E0A0E0B0E01A
:100DB00080936B0190936C01A0936D01B0936E01D1
:100DC00080916B0190916C01A0916D01B0916E01C9
:100DD00080936F0190937001A0937101B0937201A1
:100DE0008CEE98E0909374018093730181E090E021
:100DF000A0E0B0E0BC01CD010E94D8010E949000AB
:100E0000FFCFCF93DF9300D0CDB7DEB79A8389832E
:100E100089819A81892B19F41A82198203C01A8256
:100E20001982000089819A81892B09F02CC0809158
:100E300012018F3E81F08091120180958093120102
:100E400080911201880F8093120180911201809588
:100E50008093120117C08EEF8093120180913F01A1
:100E600090914001039754F480913F01909140018B
:100E700001969093400180933F0104C0109240017D
:100E800010923F01000080913F0190914001880F36
:100E9000991F880F991F8D5E9E4FFC018081918163
:100EA000A281B38180938501809112018093890191
:100EB00089819A810F900F90DF91CF910895CF9300
:100EC000DF9300D0CDB7DEB79A83898389819A8179
:100ED00082309105C1F183309105D1F10197E9F597
:100EE00080914701909148018130924070F080914B
:100EF0004701909148018835924038F4109283015F
:100F000081E090E09A8389832DC080914701909180
:100F100048018935924040F082E090E09A838983CD
:100F200083E0809383011EC0809147019091480126
:100F300081159240B8F483E090E09A83898384E03D
:100F4000809383010FC081E090E09A8389830BC076
:100F500081E090E09A83898306C081E090E09A83E3
:100F6000898301C0000089819A818230910519F03E
:100F70000397D9F037C080917701873041F4809191
:100F80008301833021F487E08093770128C080912A
:100F90007701873021F180918301833001F58091C1
:100FA00077018695809377011AC080917701803E02
:100FB00041F480918301843021F480EE80937701A5
:100FC00010C080917701803E61F080918301843070
:100FD00041F480917701880F8093770102C000006F
:100FE00001C00000809177018093840180912301EA
:100FF0008093860189819A810F900F90DF91CF9124
:101000000895CF93DF9300D0CDB7DEB79A8389835D
:1010100089819A818830910509F459C089309105F8
:101020004CF48230910549F184309105C9F1019762
:10103000A9F0B1C08032910509F477C081329105E1
:1010400024F4409709F45AC0A6C08034910509F4ED
:1010500082C08038910509F490C09DC080918401C0
:10106000873009F0A1C080918C0190918D0101968B
:1010700090938D0180938C0197C08091840187307B
:1010800029F0809184018E3009F090C080918C010C
:1010900090918D01019690938D0180938C0186C073
:1010A00080918401873049F0809184018E3029F04D
:1010B000809184018C3109F07BC080918C019091EA
:1010C0008D01019690938D0180938C0171C0809168
:1010D00084018E3049F0809184018C3129F0809117
:1010E0008401883309F066C080918C0190918D0154
:1010F000019690938D0180938C015CC08091840156
:101100008C3149F080918401883329F080918401E9
:10111000803709F051C080918C0190918D0101962A
:1011200090938D0180938C0147C080918401883316
:1011300041F080918401803721F080918401803ECC
:10114000E9F580918C0190918D01019690938D012C
:1011500080938C0133C080918401803721F080918D
:101160008401803E69F580918C0190918D010196FA
:1011700090938D0180938C0123C080918401803EE7
:1011800009F580918C0190918D01019690938D01CC
:1011900080938C0117C080918C0190918D01909368
:1011A0008D0180938C010FC000000DC000000BC0AA
:1011B000000009C0000007C0000005C0000003C017
:1011C000000001C0000080918501882F90E00F9001
:1011D0000F90DF91CF910895CF93DF9300D0CDB7DB
:1011E000DEB79A83898389819A81009719F00197E4
:1011F00031F008C081E090E09A83898306C01A82AA
:10120000198203C01A821982000089819A8100978D
:1012100019F0019771F01AC088E290E020918501E1
:10122000FC0120838BE290E020918901FC01208366
:101230000DC088E290E020918401FC0120838BE2C4
:1012400090E020918601FC012083000089819A8131
:0E1250000F900F90DF91CF910895F894FFCF8B
:10125E000000000200000000670000000000010016
:10126E000000FE020000000200000002000000026A
:10127E00000000EF04010000009001000064000077
:0A128E0000D007000001000000007E
:00000001FF
