:100000000C9446000C9465000C9465000C946500FB
:100010000C9465000C9465000C9465000C946500CC
:100020000C9465000C9465000C9465000C946500BC
:100030000C9465000C94DE000C9465000C94650033
:100040000C9465000C9465000C9465000C9465009C
:100050000C9465000C9465000C9465000C9465008C
:100060000C9465000C9465000C9465000C9465007C
:100070000C9465000C9465000C9465000C9465006C
:100080000C9465000C9465000C94650011241FBE4F
:10009000CFEFD0E4DEBFCDBF11E0A0E0B1E0E4E8F7
:1000A000F5E000E00BBF02C007900D92A431B1074C
:1000B000D9F721E0A4E1B1E001C01D92A132B2075D
:1000C000E1F70E9471020C94C0020C940000CF93DF
:1000D000DF9300D01F92CDB7DEB789837B836A831D
:1000E00089818A3031F48A819B81BC018DE00E9434
:1000F000670080EC90E0FC018081882F90E08072A6
:100100009927892BB1F386EC90E02981FC012083AB
:1001100080E090E00F900F900F90DF91CF910895C5
:10012000CF93DF93CDB7DEB781E890E02BE0FC0101
:10013000208388E890E02DE730E0FC0131832083C4
:100140008FE690E022E0FC01208384E890E0FC014F
:100150001182108280910E0190910F01A0911001E7
:10016000B09111018093150190931601A09317018E
:10017000B09318018FE590E02FE530E0F901208180
:100180002068FC0120830000DF91CF910895CF9378
:10019000DF93CDB7DEB781E890E0FC01108200006C
:1001A000DF91CF910895CF93DF93CDB7DEB781E094
:1001B000809314010000DF91CF9108951F920F9258
:1001C00000905F000F92112400905B000F922F931C
:1001D0003F934F935F936F937F938F939F93AF93CF
:1001E000BF93EF93FF93CF93DF93CDB7DEB78091AB
:1001F000150190911601A0911701B0911801019776
:10020000A109B1098093150190931601A0931701DC
:10021000B09318018091150190911601A0911701DA
:10022000B0911801892B8A2B8B2B91F40E94D3005B
:1002300080910E0190910F01A0911001B0911101D8
:100240008093150190931601A0931701B0931801A4
:100250000000DF91CF91FF91EF91BF91AF919F91FE
:100260008F917F916F915F914F913F912F910F905F
:1002700000925B000F9000925F000F901F90189506
:10028000CF93DF9300D000D0CDB7DEB769837A83F8
:100290008B839C8389819A81AB81BC8180930E0181
:1002A00090930F01A0931001B093110180910E0162
:1002B00090910F01A0911001B0911101809315014F
:1002C00090931601A0931701B093180100000F90AE
:1002D0000F900F900F90DF91CF910895CF93DF9300
:1002E00000D0CDB7DEB79A83898389819A81892B23
:1002F00019F01A82198201C0000089819A81892B24
:1003000009F018C0809112018F3E81F08091120196
:1003100080958093120180911201880F80931201C1
:100320008091120180958093120103C08EEF80931B
:100330001201000088E290E020911301FC0120836B
:100340008BE290E020911201FC01208389819A8147
:100350000F900F90DF91CF910895CF93DF93CDB79A
:10036000DEB780911B0190911C0181309105A1F0B5
:100370008130910540F08230910509F446C0039721
:1003800009F44AC050C081E090E090931C01809332
:100390001B0110921F014FC08091190190911A0109
:1003A0008130924080F08091190190911A01883536
:1003B000924048F410921F0181E090E090931C015C
:1003C00080931B0137C08091190190911A018935E2
:1003D000924050F082E090E090931C0180931B01CA
:1003E00083E080931F0126C08091190190911A012A
:1003F00081159240F8F483E090E090931C01809383
:100400001B0184E080931F0115C081E090E0909370
:100410001C0180931B010FC081E090E090931C01B0
:1004200080931B0108C081E090E090931C018093B1
:100430001B0101C0000080911B0190911C018230C2
:10044000910519F00397D9F037C080911D018130D3
:1004500041F480911F01833021F480E880931D01D5
:1004600028C080911D01813021F180911F018330CE
:1004700001F580911D01869580931D011AC0809120
:100480001D01803841F480911F01843021F481E006
:1004900080931D0110C080911D01803861F0809112
:1004A0001F01843041F480911D01880F80931D014C
:1004B00002C0000001C000000000DF91CF9108954C
:1004C000CF93DF93CDB7DEB78AE790E02AE730E03D
:1004D000F9012081206EFC0120830000DF91CF9183
:1004E0000895CF93DF9300D0CDB7DEB787E290E0D9
:1004F0002FEFFC01208388E290E0FC0110828AE269
:1005000090E02FEFFC0120838BE290E0FC01108251
:1005100081E290E0FC01108282E290E02FE0FC0199
:1005200020838EEF80931E0180E880931D0110923E
:100530001C0110921B011A82198264EF71E080E0A5
:1005400090E00E9440010E9490000E94600288E7B3
:1005500090E0FC018081918190931A0180931901B0
:1005600089819A810E946E019A8389830E94AD01DC
:100570000000809114018823E1F310921401E7CF69
:04058000F894FFCF1D
:1005840000000002000000006700000000000100FD
:040594000000FE0263
:00000001FF
